{
  "transactions": [
    {
      "hash": "0x40014c01861669f3ee8a8ee9c91ad5c181c1e6fdf88c31bcffc2097ff3459d9a",
      "transactionType": "CREATE",
      "contractName": "MockUSDT",
      "contractAddress": "0x1648c0b178eebcb57aa31e3c62ee2b52bfd1a123",
      "function": null,
      "arguments": null,
      "transaction": {
        "from": "0xa2791e44234dc9c96f260ad15fdd09fe9b597fe1",
        "gas": "0x12abc2",
        "value": "0x0",
        "input": "0x608060405234801561001057600080fd5b506040518060400160405280600881526020017f4d6f636b555344540000000000000000000000000000000000000000000000008152506040518060400160405280600481526020017f5553445400000000000000000000000000000000000000000000000000000000815250816003908161008c91906102f4565b50806004908161009c91906102f4565b5050506103c6565b600081519050919050565b7f4e487b7100000000000000000000000000000000000000000000000000000000600052604160045260246000fd5b7f4e487b7100000000000000000000000000000000000000000000000000000000600052602260045260246000fd5b6000600282049050600182168061012557607f821691505b602082108103610138576101376100de565b5b50919050565b60008190508160005260206000209050919050565b60006020601f8301049050919050565b600082821b905092915050565b6000600883026101a07fffffffffffffffffffffffffffffffffffffffffffffffffffffffffffffffff82610163565b6101aa8683610163565b95508019841693508086168417925050509392505050565b6000819050919050565b6000819050919050565b60006101f16101ec6101e7846101c2565b6101cc565b6101c2565b9050919050565b6000819050919050565b61020b836101d6565b61021f610217826101f8565b848454610170565b825550505050565b600090565b610234610227565b61023f818484610202565b505050565b5b818110156102635761025860008261022c565b600181019050610245565b5050565b601f8211156102a8576102798161013e565b61028284610153565b81016020851015610291578190505b6102a561029d85610153565b830182610244565b50505b505050565b600082821c905092915050565b60006102cb600019846008026102ad565b1980831691505092915050565b60006102e483836102ba565b9150826002028217905092915050565b6102fd826100a4565b67ffffffffffffffff811115610316576103156100af565b5b610320825461010d565b61032b828285610267565b600060209050601f83116001811461035e576000841561034c578287015190505b61035685826102d8565b8655506103be565b601f19841661036c8661013e565b60005b828110156103945784890151825560018201915060208501945060208101905061036f565b868310156103b157848901516103ad601f8916826102ba565b8355505b6001600288020188555050505b505050505050565b610f0d806103d56000396000f3fe608060405234801561001057600080fd5b506004361061009e5760003560e01c806340c10f191161006657806340c10f191461015d57806370a082311461017957806395d89b41146101a9578063a9059cbb146101c7578063dd62ed3e146101f75761009e565b806306fdde03146100a3578063095ea7b3146100c157806318160ddd146100f157806323b872dd1461010f578063313ce5671461013f575b600080fd5b6100ab610227565b6040516100b89190610b61565b60405180910390f35b6100db60048036038101906100d69190610c1c565b6102b9565b6040516100e89190610c77565b60405180910390f35b6100f96102dc565b6040516101069190610ca1565b60405180910390f35b61012960048036038101906101249190610cbc565b6102e6565b6040516101369190610c77565b60405180910390f35b610147610315565b6040516101549190610d2b565b60405180910390f35b61017760048036038101906101729190610c1c565b61031e565b005b610193600480360381019061018e9190610d46565b61032c565b6040516101a09190610ca1565b60405180910390f35b6101b1610374565b6040516101be9190610b61565b60405180910390f35b6101e160048036038101906101dc9190610c1c565b610406565b6040516101ee9190610c77565b60405180910390f35b610211600480360381019061020c9190610d73565b610429565b60405161021e9190610ca1565b60405180910390f35b60606003805461023690610de2565b80601f016020809104026020016040519081016040528092919081815260200182805461026290610de2565b80156102af5780601f10610284576101008083540402835291602001916102af565b820191906000526020600020905b81548152906001019060200180831161029257829003601f168201915b5050505050905090565b6000806102c46104b0565b90506102d18185856104b8565b600191505092915050565b6000600254905090565b6000806102f16104b0565b90506102fe8582856104ca565b61030985858561055f565b60019150509392505050565b60006012905090565b6103288282610653565b5050565b60008060008373ffffffffffffffffffffffffffffffffffffffff1673ffffffffffffffffffffffffffffffffffffffff168152602001908152602001600020549050919050565b60606004805461038390610de2565b80601f01602080910402602001604051908101604052809291908181526020018280546103af90610de2565b80156103fc5780601f106103d1576101008083540402835291602001916103fc565b820191906000526020600020905b8154815290600101906020018083116103df57829003601f168201915b5050505050905090565b6000806104116104b0565b905061041e81858561055f565b600191505092915050565b6000600160008473ffffffffffffffffffffffffffffffffffffffff1673ffffffffffffffffffffffffffffffffffffffff16815260200190815260200160002060008373ffffffffffffffffffffffffffffffffffffffff1673ffffffffffffffffffffffffffffffffffffffff16815260200190815260200160002054905092915050565b600033905090565b6104c583838360016106d5565b505050565b60006104d68484610429565b90507fffffffffffffffffffffffffffffffffffffffffffffffffffffffffffffffff8110156105595781811015610549578281836040517ffb8f41b200000000000000000000000000000000000000000000000000000000815260040161054093929190610e22565b60405180910390fd5b610558848484840360006106d5565b5b50505050565b600073ffffffffffffffffffffffffffffffffffffffff168373ffffffffffffffffffffffffffffffffffffffff16036105d15760006040517f96c6fd1e0000000000000000000000000000000000000000000000000000000081526004016105c89190610e59565b60405180910390fd5b600073ffffffffffffffffffffffffffffffffffffffff168273ffffffffffffffffffffffffffffffffffffffff16036106435760006040517fec442f0500000000000000000000000000000000000000000000000000000000815260040161063a9190610e59565b60405180910390fd5b61064e8383836108ac565b505050565b600073ffffffffffffffffffffffffffffffffffffffff168273ffffffffffffffffffffffffffffffffffffffff16036106c55760006040517fec442f050000000000000000000000000000000000000000000000000000000081526004016106bc9190610e59565b60405180910390fd5b6106d1600083836108ac565b5050565b600073ffffffffffffffffffffffffffffffffffffffff168473ffffffffffffffffffffffffffffffffffffffff16036107475760006040517fe602df0500000000000000000000000000000000000000000000000000000000815260040161073e9190610e59565b60405180910390fd5b600073ffffffffffffffffffffffffffffffffffffffff168373ffffffffffffffffffffffffffffffffffffffff16036107b95760006040517f94280d620000000000000000000000000000000000000000000000000000000081526004016107b09190610e59565b60405180910390fd5b81600160008673ffffffffffffffffffffffffffffffffffffffff1673ffffffffffffffffffffffffffffffffffffffff16815260200190815260200160002060008573ffffffffffffffffffffffffffffffffffffffff1673ffffffffffffffffffffffffffffffffffffffff1681526020019081526020016000208190555080156108a6578273ffffffffffffffffffffffffffffffffffffffff168473ffffffffffffffffffffffffffffffffffffffff167f8c5be1e5ebec7d5bd14f71427d1e84f3dd0314c0f7b2291e5b200ac8c7c3b9258460405161089d9190610ca1565b60405180910390a35b50505050565b600073ffffffffffffffffffffffffffffffffffffffff168373ffffffffffffffffffffffffffffffffffffffff16036108fe5780600260008282546108f29190610ea3565b925050819055506109d1565b60008060008573ffffffffffffffffffffffffffffffffffffffff1673ffffffffffffffffffffffffffffffffffffffff1681526020019081526020016000205490508181101561098a578381836040517fe450d38c00000000000000000000000000000000000000000000000000000000815260040161098193929190610e22565b60405180910390fd5b8181036000808673ffffffffffffffffffffffffffffffffffffffff1673ffffffffffffffffffffffffffffffffffffffff16815260200190815260200160002081905550505b600073ffffffffffffffffffffffffffffffffffffffff168273ffffffffffffffffffffffffffffffffffffffff1603610a1a5780600260008282540392505081905550610a67565b806000808473ffffffffffffffffffffffffffffffffffffffff1673ffffffffffffffffffffffffffffffffffffffff168152602001908152602001600020600082825401925050819055505b8173ffffffffffffffffffffffffffffffffffffffff168373ffffffffffffffffffffffffffffffffffffffff167fddf252ad1be2c89b69c2b068fc378daa952ba7f163c4a11628f55a4df523b3ef83604051610ac49190610ca1565b60405180910390a3505050565b600081519050919050565b600082825260208201905092915050565b60005b83811015610b0b578082015181840152602081019050610af0565b60008484015250505050565b6000601f19601f8301169050919050565b6000610b3382610ad1565b610b3d8185610adc565b9350610b4d818560208601610aed565b610b5681610b17565b840191505092915050565b60006020820190508181036000830152610b7b8184610b28565b905092915050565b600080fd5b600073ffffffffffffffffffffffffffffffffffffffff82169050919050565b6000610bb382610b88565b9050919050565b610bc381610ba8565b8114610bce57600080fd5b50565b600081359050610be081610bba565b92915050565b6000819050919050565b610bf981610be6565b8114610c0457600080fd5b50565b600081359050610c1681610bf0565b92915050565b60008060408385031215610c3357610c32610b83565b5b6000610c4185828601610bd1565b9250506020610c5285828601610c07565b9150509250929050565b60008115159050919050565b610c7181610c5c565b82525050565b6000602082019050610c8c6000830184610c68565b92915050565b610c9b81610be6565b82525050565b6000602082019050610cb66000830184610c92565b92915050565b600080600060608486031215610cd557610cd4610b83565b5b6000610ce386828701610bd1565b9350506020610cf486828701610bd1565b9250506040610d0586828701610c07565b9150509250925092565b600060ff82169050919050565b610d2581610d0f565b82525050565b6000602082019050610d406000830184610d1c565b92915050565b600060208284031215610d5c57610d5b610b83565b5b6000610d6a84828501610bd1565b91505092915050565b60008060408385031215610d8a57610d89610b83565b5b6000610d9885828601610bd1565b9250506020610da985828601610bd1565b9150509250929050565b7f4e487b7100000000000000000000000000000000000000000000000000000000600052602260045260246000fd5b60006002820490506001821680610dfa57607f821691505b602082108103610e0d57610e0c610db3565b5b50919050565b610e1c81610ba8565b82525050565b6000606082019050610e376000830186610e13565b610e446020830185610c92565b610e516040830184610c92565b949350505050565b6000602082019050610e6e6000830184610e13565b92915050565b7f4e487b7100000000000000000000000000000000000000000000000000000000600052601160045260246000fd5b6000610eae82610be6565b9150610eb983610be6565b9250828201905080821115610ed157610ed0610e74565b5b9291505056fea2646970667358221220c109cc505985129f246914bd80cfc4380b187d7477954264d0a27b8892c22a3364736f6c634300081e0033",
        "nonce": "0xa2",
        "chainId": "0x61"
      },
      "additionalContracts": [],
      "isFixedGasLimit": false
    },
    {
      "hash": "0x3aff60afe81fd0e757873255a2f0f5088eff17cc6650b50efcd4398e340fc574",
      "transactionType": "CALL",
      "contractName": "MockUSDT",
      "contractAddress": "0x1648c0b178eebcb57aa31e3c62ee2b52bfd1a123",
      "function": "mint(address,uint256)",
      "arguments": [
        "0xa2791e44234Dc9C96F260aD15fdD09Fe9B597FE1",
        "100000000000000000000"
      ],
      "transaction": {
        "from": "0xa2791e44234dc9c96f260ad15fdd09fe9b597fe1",
        "to": "0x1648c0b178eebcb57aa31e3c62ee2b52bfd1a123",
        "gas": "0x17410",
        "value": "0x0",
        "input": "0x40c10f19000000000000000000000000a2791e44234dc9c96f260ad15fdd09fe9b597fe10000000000000000000000000000000000000000000000056bc75e2d63100000",
        "nonce": "0xa3",
        "chainId": "0x61"
      },
      "additionalContracts": [],
      "isFixedGasLimit": false
    },
    {
      "hash": "0x95622fd1a6721d6ddebecf482dd343ffe2fb9b50f1fcc0b14f5f4d3407aff7b4",
      "transactionType": "CALL",
      "contractName": "MockUSDT",
      "contractAddress": "0x1648c0b178eebcb57aa31e3c62ee2b52bfd1a123",
      "function": "mint(address,uint256)",
      "arguments": [
        "0x1199a2d927DEC05A6736543Ad864136d8b18FBEc",
        "100000000000000000000"
      ],
      "transaction": {
        "from": "0xa2791e44234dc9c96f260ad15fdd09fe9b597fe1",
        "to": "0x1648c0b178eebcb57aa31e3c62ee2b52bfd1a123",
        "gas": "0x12843",
        "value": "0x0",
        "input": "0x40c10f190000000000000000000000001199a2d927dec05a6736543ad864136d8b18fbec0000000000000000000000000000000000000000000000056bc75e2d63100000",
        "nonce": "0xa4",
        "chainId": "0x61"
      },
      "additionalContracts": [],
      "isFixedGasLimit": false
    },
    {
      "hash": "0xa8ff4bac64a44d2c1b7599f05aaed85fe2d94d77d77935099b804dddedff9a88",
      "transactionType": "CALL",
      "contractName": "MockUSDT",
      "contractAddress": "0x1648c0b178eebcb57aa31e3c62ee2b52bfd1a123",
      "function": "mint(address,uint256)",
      "arguments": [
        "0x7065fc73488a273046103518C49C11438B533de8",
        "100000000000000000000"
      ],
      "transaction": {
        "from": "0xa2791e44234dc9c96f260ad15fdd09fe9b597fe1",
        "to": "0x1648c0b178eebcb57aa31e3c62ee2b52bfd1a123",
        "gas": "0x12843",
        "value": "0x0",
        "input": "0x40c10f190000000000000000000000007065fc73488a273046103518c49c11438b533de80000000000000000000000000000000000000000000000056bc75e2d63100000",
        "nonce": "0xa5",
        "chainId": "0x61"
      },
      "additionalContracts": [],
      "isFixedGasLimit": false
    },
    {
      "hash": "0x107fbca517a993570c263837779a28d25ba8824999e90f4e7b7277e703b2acb3",
      "transactionType": "CALL",
      "contractName": "MockUSDT",
      "contractAddress": "0x1648c0b178eebcb57aa31e3c62ee2b52bfd1a123",
      "function": "mint(address,uint256)",
      "arguments": [
        "0x754b633228CE785770670F645C6f427DDC804b99",
        "100000000000000000000"
      ],
      "transaction": {
        "from": "0xa2791e44234dc9c96f260ad15fdd09fe9b597fe1",
        "to": "0x1648c0b178eebcb57aa31e3c62ee2b52bfd1a123",
        "gas": "0x12843",
        "value": "0x0",
        "input": "0x40c10f19000000000000000000000000754b633228ce785770670f645c6f427ddc804b990000000000000000000000000000000000000000000000056bc75e2d63100000",
        "nonce": "0xa6",
        "chainId": "0x61"
      },
      "additionalContracts": [],
      "isFixedGasLimit": false
    },
    {
      "hash": "0x4ea59094c997a60eb5279b5888009e570a4fcfe73280bbf231dd1148ae5e55ed",
      "transactionType": "CALL",
      "contractName": "MockUSDT",
      "contractAddress": "0x1648c0b178eebcb57aa31e3c62ee2b52bfd1a123",
      "function": "mint(address,uint256)",
      "arguments": [
        "0x9EBAFaad6A9D13b2D03Dada966b52F4C2a6671dd",
        "100000000000000000000"
      ],
      "transaction": {
        "from": "0xa2791e44234dc9c96f260ad15fdd09fe9b597fe1",
        "to": "0x1648c0b178eebcb57aa31e3c62ee2b52bfd1a123",
        "gas": "0x12843",
        "value": "0x0",
        "input": "0x40c10f190000000000000000000000009ebafaad6a9d13b2d03dada966b52f4c2a6671dd0000000000000000000000000000000000000000000000056bc75e2d63100000",
        "nonce": "0xa7",
        "chainId": "0x61"
      },
      "additionalContracts": [],
      "isFixedGasLimit": false
    },
    {
      "hash": "0x3bf8aee1f547dcbc320e31d9751db92f5aa7f5141576a478dbc3392ebecec995",
      "transactionType": "CALL",
      "contractName": "MockUSDT",
      "contractAddress": "0x1648c0b178eebcb57aa31e3c62ee2b52bfd1a123",
      "function": "mint(address,uint256)",
      "arguments": [
        "0x6192CaCfD2DE48DA76f479f88183ca51e0ba8E2e",
        "100000000000000000000"
      ],
      "transaction": {
        "from": "0xa2791e44234dc9c96f260ad15fdd09fe9b597fe1",
        "to": "0x1648c0b178eebcb57aa31e3c62ee2b52bfd1a123",
        "gas": "0x12843",
        "value": "0x0",
        "input": "0x40c10f190000000000000000000000006192cacfd2de48da76f479f88183ca51e0ba8e2e0000000000000000000000000000000000000000000000056bc75e2d63100000",
        "nonce": "0xa8",
        "chainId": "0x61"
      },
      "additionalContracts": [],
      "isFixedGasLimit": false
    },
    {
      "hash": "0xe6b6db9eed10fc37237343bad3e1480f1e971b706475013dd0c98886bf45b3eb",
      "transactionType": "CALL",
      "contractName": "MockUSDT",
      "contractAddress": "0x1648c0b178eebcb57aa31e3c62ee2b52bfd1a123",
      "function": "mint(address,uint256)",
      "arguments": [
        "0x6c03724c891dC2AA649dEf70E780061f2b72cCdE",
        "100000000000000000000"
      ],
      "transaction": {
        "from": "0xa2791e44234dc9c96f260ad15fdd09fe9b597fe1",
        "to": "0x1648c0b178eebcb57aa31e3c62ee2b52bfd1a123",
        "gas": "0x12843",
        "value": "0x0",
        "input": "0x40c10f190000000000000000000000006c03724c891dc2aa649def70e780061f2b72ccde0000000000000000000000000000000000000000000000056bc75e2d63100000",
        "nonce": "0xa9",
        "chainId": "0x61"
      },
      "additionalContracts": [],
      "isFixedGasLimit": false
    },
    {
      "hash": "0x3ed5b85162593765e66f7f8217e4bb6e25eb0df0c9c2e89ccf782d9e0f902cad",
      "transactionType": "CALL",
      "contractName": "MockUSDT",
      "contractAddress": "0x1648c0b178eebcb57aa31e3c62ee2b52bfd1a123",
      "function": "mint(address,uint256)",
      "arguments": [
        "0x48a55480C9C94F9A7FEa4174A356ef6df3002c59",
        "100000000000000000000"
      ],
      "transaction": {
        "from": "0xa2791e44234dc9c96f260ad15fdd09fe9b597fe1",
        "to": "0x1648c0b178eebcb57aa31e3c62ee2b52bfd1a123",
        "gas": "0x117bd",
        "value": "0x0",
        "input": "0x40c10f1900000000000000000000000048a55480c9c94f9a7fea4174a356ef6df3002c590000000000000000000000000000000000000000000000056bc75e2d63100000",
        "nonce": "0xaa",
        "chainId": "0x61"
      },
      "additionalContracts": [],
      "isFixedGasLimit": false
    },
    {
      "hash": "0x54a3963be9b1d3137fd83bb3294d2de2f9ee9ba9324285babdb61b1814d23a42",
      "transactionType": "CALL",
      "contractName": "MockUSDT",
      "contractAddress": "0x1648c0b178eebcb57aa31e3c62ee2b52bfd1a123",
      "function": "mint(address,uint256)",
      "arguments": [
        "0xf9185956b9dA818ACF151B2f397d45EFF317e0D3",
        "100000000000000000000"
      ],
      "transaction": {
        "from": "0xa2791e44234dc9c96f260ad15fdd09fe9b597fe1",
        "to": "0x1648c0b178eebcb57aa31e3c62ee2b52bfd1a123",
        "gas": "0x12843",
        "value": "0x0",
        "input": "0x40c10f19000000000000000000000000f9185956b9da818acf151b2f397d45eff317e0d30000000000000000000000000000000000000000000000056bc75e2d63100000",
        "nonce": "0xab",
        "chainId": "0x61"
      },
      "additionalContracts": [],
      "isFixedGasLimit": false
    },
    {
      "hash": "0x79bdec451b430adb86c3a0c5374c8b3867c40a23c5bb7e6adfb507f39a8480ac",
      "transactionType": "CALL",
      "contractName": "MockUSDT",
      "contractAddress": "0x1648c0b178eebcb57aa31e3c62ee2b52bfd1a123",
      "function": "mint(address,uint256)",
      "arguments": [
        "0x7937aF8eea4D307ABD880CC71a4390dc51fC6904",
        "100000000000000000000"
      ],
      "transaction": {
        "from": "0xa2791e44234dc9c96f260ad15fdd09fe9b597fe1",
        "to": "0x1648c0b178eebcb57aa31e3c62ee2b52bfd1a123",
        "gas": "0x12843",
        "value": "0x0",
        "input": "0x40c10f190000000000000000000000007937af8eea4d307abd880cc71a4390dc51fc69040000000000000000000000000000000000000000000000056bc75e2d63100000",
        "nonce": "0xac",
        "chainId": "0x61"
      },
      "additionalContracts": [],
      "isFixedGasLimit": false
    },
    {
      "hash": "0x0dcec37d4cc7bfb58e0fbbbae3ed60bb69c622f4a1b3ecbc87c9a320b7b38cc6",
      "transactionType": "CALL",
      "contractName": "MockUSDT",
      "contractAddress": "0x1648c0b178eebcb57aa31e3c62ee2b52bfd1a123",
      "function": "mint(address,uint256)",
      "arguments": [
        "0x08C388b03C08E373c162b09c0D50457dCcA67CFc",
        "100000000000000000000"
      ],
      "transaction": {
        "from": "0xa2791e44234dc9c96f260ad15fdd09fe9b597fe1",
        "to": "0x1648c0b178eebcb57aa31e3c62ee2b52bfd1a123",
        "gas": "0x12843",
        "value": "0x0",
        "input": "0x40c10f1900000000000000000000000008c388b03c08e373c162b09c0d50457dcca67cfc0000000000000000000000000000000000000000000000056bc75e2d63100000",
        "nonce": "0xad",
        "chainId": "0x61"
      },
      "additionalContracts": [],
      "isFixedGasLimit": false
    },
    {
      "hash": "0x686902df93cbedce8935829e1341a667e2f7dd819f9d51698a6a170b45125b92",
      "transactionType": "CALL",
      "contractName": "MockUSDT",
      "contractAddress": "0x1648c0b178eebcb57aa31e3c62ee2b52bfd1a123",
      "function": "mint(address,uint256)",
      "arguments": [
        "0x4609284C9ae49F0A9A7EfE05AEcbDbAeE1107B5a",
        "100000000000000000000"
      ],
      "transaction": {
        "from": "0xa2791e44234dc9c96f260ad15fdd09fe9b597fe1",
        "to": "0x1648c0b178eebcb57aa31e3c62ee2b52bfd1a123",
        "gas": "0x12843",
        "value": "0x0",
        "input": "0x40c10f190000000000000000000000004609284c9ae49f0a9a7efe05aecbdbaee1107b5a0000000000000000000000000000000000000000000000056bc75e2d63100000",
        "nonce": "0xae",
        "chainId": "0x61"
      },
      "additionalContracts": [],
      "isFixedGasLimit": false
    },
    {
      "hash": "0xb54833eeadb89be6d048f62382303f7cd202f7f64bb7fbb4a25af890952462d7",
      "transactionType": "CALL",
      "contractName": "MockUSDT",
      "contractAddress": "0x1648c0b178eebcb57aa31e3c62ee2b52bfd1a123",
      "function": "mint(address,uint256)",
      "arguments": [
        "0x975b079a73a8A80AB79522a8350771b403FF9Aa3",
        "100000000000000000000"
      ],
      "transaction": {
        "from": "0xa2791e44234dc9c96f260ad15fdd09fe9b597fe1",
        "to": "0x1648c0b178eebcb57aa31e3c62ee2b52bfd1a123",
        "gas": "0x12843",
        "value": "0x0",
        "input": "0x40c10f19000000000000000000000000975b079a73a8a80ab79522a8350771b403ff9aa30000000000000000000000000000000000000000000000056bc75e2d63100000",
        "nonce": "0xaf",
        "chainId": "0x61"
      },
      "additionalContracts": [],
      "isFixedGasLimit": false
    },
    {
      "hash": "0x088e994e7efd14036f1485e38d363d3fd9e0d1c71718e6e3dd150e6af0c6b04c",
      "transactionType": "CALL",
      "contractName": "MockUSDT",
      "contractAddress": "0x1648c0b178eebcb57aa31e3c62ee2b52bfd1a123",
      "function": "mint(address,uint256)",
      "arguments": [
        "0xB7Ce47e6049ab78Fc7b51a6E8d2B0A10Ab1Ee109",
        "100000000000000000000"
      ],
      "transaction": {
        "from": "0xa2791e44234dc9c96f260ad15fdd09fe9b597fe1",
        "to": "0x1648c0b178eebcb57aa31e3c62ee2b52bfd1a123",
        "gas": "0x12843",
        "value": "0x0",
        "input": "0x40c10f19000000000000000000000000b7ce47e6049ab78fc7b51a6e8d2b0a10ab1ee1090000000000000000000000000000000000000000000000056bc75e2d63100000",
        "nonce": "0xb0",
        "chainId": "0x61"
      },
      "additionalContracts": [],
      "isFixedGasLimit": false
    },
    {
      "hash": "0x602798a3f9ad4c60945117feac91212a65f2a08d06ec5c202cd834d6580ca2ee",
      "transactionType": "CALL",
      "contractName": "MockUSDT",
      "contractAddress": "0x1648c0b178eebcb57aa31e3c62ee2b52bfd1a123",
      "function": "mint(address,uint256)",
      "arguments": [
        "0x2e647E04387Cb6d318581500A13f8E88E5222112",
        "100000000000000000000"
      ],
      "transaction": {
        "from": "0xa2791e44234dc9c96f260ad15fdd09fe9b597fe1",
        "to": "0x1648c0b178eebcb57aa31e3c62ee2b52bfd1a123",
        "gas": "0x117bd",
        "value": "0x0",
        "input": "0x40c10f190000000000000000000000002e647e04387cb6d318581500a13f8e88e52221120000000000000000000000000000000000000000000000056bc75e2d63100000",
        "nonce": "0xb1",
        "chainId": "0x61"
      },
      "additionalContracts": [],
      "isFixedGasLimit": false
    },
    {
      "hash": "0x5e4d657d84ec596132eb88c0193060af366f266d6aae94e9f76c5327a35474cf",
      "transactionType": "CALL",
      "contractName": "MockUSDT",
      "contractAddress": "0x1648c0b178eebcb57aa31e3c62ee2b52bfd1a123",
      "function": "mint(address,uint256)",
      "arguments": [
        "0x0db3170B07a89aB6a11f5D7d32Cee8BF2F30844c",
        "100000000000000000000"
      ],
      "transaction": {
        "from": "0xa2791e44234dc9c96f260ad15fdd09fe9b597fe1",
        "to": "0x1648c0b178eebcb57aa31e3c62ee2b52bfd1a123",
        "gas": "0x12843",
        "value": "0x0",
        "input": "0x40c10f190000000000000000000000000db3170b07a89ab6a11f5d7d32cee8bf2f30844c0000000000000000000000000000000000000000000000056bc75e2d63100000",
        "nonce": "0xb2",
        "chainId": "0x61"
      },
      "additionalContracts": [],
      "isFixedGasLimit": false
    },
    {
      "hash": "0x7f21ac301de315a1e1b11919e87e439a1529764cedd61eca4daba7e87bcc3647",
      "transactionType": "CALL",
      "contractName": "MockUSDT",
      "contractAddress": "0x1648c0b178eebcb57aa31e3c62ee2b52bfd1a123",
      "function": "mint(address,uint256)",
      "arguments": [
        "0x5C10Ab8D08b7F640bA703E6b1C850324bcf22330",
        "100000000000000000000"
      ],
      "transaction": {
        "from": "0xa2791e44234dc9c96f260ad15fdd09fe9b597fe1",
        "to": "0x1648c0b178eebcb57aa31e3c62ee2b52bfd1a123",
        "gas": "0x12843",
        "value": "0x0",
        "input": "0x40c10f190000000000000000000000005c10ab8d08b7f640ba703e6b1c850324bcf223300000000000000000000000000000000000000000000000056bc75e2d63100000",
        "nonce": "0xb3",
        "chainId": "0x61"
      },
      "additionalContracts": [],
      "isFixedGasLimit": false
    },
    {
      "hash": "0xa19ee3fc36d3c3d69e683fba9ae4e8a15cfdb489718b498fb2923ddb1fa272f6",
      "transactionType": "CALL",
      "contractName": "MockUSDT",
      "contractAddress": "0x1648c0b178eebcb57aa31e3c62ee2b52bfd1a123",
      "function": "mint(address,uint256)",
      "arguments": [
        "0x4753b4a035220a8E33Bf879Fa4CaC7fbd32511B2",
        "100000000000000000000"
      ],
      "transaction": {
        "from": "0xa2791e44234dc9c96f260ad15fdd09fe9b597fe1",
        "to": "0x1648c0b178eebcb57aa31e3c62ee2b52bfd1a123",
        "gas": "0x12843",
        "value": "0x0",
        "input": "0x40c10f190000000000000000000000004753b4a035220a8e33bf879fa4cac7fbd32511b20000000000000000000000000000000000000000000000056bc75e2d63100000",
        "nonce": "0xb4",
        "chainId": "0x61"
      },
      "additionalContracts": [],
      "isFixedGasLimit": false
    },
    {
      "hash": "0x01697e1bb1d6c715665db63cbbf5cc8317cbb28886d2d76d10687f73e7e9295e",
      "transactionType": "CALL",
      "contractName": "MockUSDT",
      "contractAddress": "0x1648c0b178eebcb57aa31e3c62ee2b52bfd1a123",
      "function": "mint(address,uint256)",
      "arguments": [
        "0xBd630C32C65fd62377B06c1D521Ca0327e41e98E",
        "100000000000000000000"
      ],
      "transaction": {
        "from": "0xa2791e44234dc9c96f260ad15fdd09fe9b597fe1",
        "to": "0x1648c0b178eebcb57aa31e3c62ee2b52bfd1a123",
        "gas": "0x12843",
        "value": "0x0",
        "input": "0x40c10f19000000000000000000000000bd630c32c65fd62377b06c1d521ca0327e41e98e0000000000000000000000000000000000000000000000056bc75e2d63100000",
        "nonce": "0xb5",
        "chainId": "0x61"
      },
      "additionalContracts": [],
      "isFixedGasLimit": false
    },
    {
      "hash": "0x699642cd1b6ba6a4aab824009b7d3340a943a71753df6bad52cab2ae887e4fc9",
      "transactionType": "CALL",
      "contractName": "MockUSDT",
      "contractAddress": "0x1648c0b178eebcb57aa31e3c62ee2b52bfd1a123",
      "function": "mint(address,uint256)",
      "arguments": [
        "0x8F644929DA93294B8Cbf77DCEDFAe030A54D4D96",
        "100000000000000000000"
      ],
      "transaction": {
        "from": "0xa2791e44234dc9c96f260ad15fdd09fe9b597fe1",
        "to": "0x1648c0b178eebcb57aa31e3c62ee2b52bfd1a123",
        "gas": "0x12843",
        "value": "0x0",
        "input": "0x40c10f190000000000000000000000008f644929da93294b8cbf77dcedfae030a54d4d960000000000000000000000000000000000000000000000056bc75e2d63100000",
        "nonce": "0xb6",
        "chainId": "0x61"
      },
      "additionalContracts": [],
      "isFixedGasLimit": false
    },
    {
      "hash": "0xef4aced931727dd5d2cbdcf62d3c179108ab237a278ea0f5c17f4668a3e25fc6",
      "transactionType": "CALL",
      "contractName": "MockUSDT",
      "contractAddress": "0x1648c0b178eebcb57aa31e3c62ee2b52bfd1a123",
      "function": "mint(address,uint256)",
      "arguments": [
        "0x218922b1569f2945Ba5a0f3ef78f1e852219DbC2",
        "100000000000000000000"
      ],
      "transaction": {
        "from": "0xa2791e44234dc9c96f260ad15fdd09fe9b597fe1",
        "to": "0x1648c0b178eebcb57aa31e3c62ee2b52bfd1a123",
        "gas": "0x12843",
        "value": "0x0",
        "input": "0x40c10f19000000000000000000000000218922b1569f2945ba5a0f3ef78f1e852219dbc20000000000000000000000000000000000000000000000056bc75e2d63100000",
        "nonce": "0xb7",
        "chainId": "0x61"
      },
      "additionalContracts": [],
      "isFixedGasLimit": false
    },
    {
      "hash": "0x31849173e73871cc1d6a798ff2824c5cf41815294eae55987eeb7a48ec046b54",
      "transactionType": "CALL",
      "contractName": "MockUSDT",
      "contractAddress": "0x1648c0b178eebcb57aa31e3c62ee2b52bfd1a123",
      "function": "mint(address,uint256)",
      "arguments": [
        "0xF081EFBd6B6bF95298Ea2173Ce8282E53f2d61FD",
        "100000000000000000000"
      ],
      "transaction": {
        "from": "0xa2791e44234dc9c96f260ad15fdd09fe9b597fe1",
        "to": "0x1648c0b178eebcb57aa31e3c62ee2b52bfd1a123",
        "gas": "0x12843",
        "value": "0x0",
        "input": "0x40c10f19000000000000000000000000f081efbd6b6bf95298ea2173ce8282e53f2d61fd0000000000000000000000000000000000000000000000056bc75e2d63100000",
        "nonce": "0xb8",
        "chainId": "0x61"
      },
      "additionalContracts": [],
      "isFixedGasLimit": false
    },
    {
      "hash": "0xae00c22c2cd20f8a0f545b8605a05425f700ba0deb30e833202f6be5b8db863d",
      "transactionType": "CALL",
      "contractName": "MockUSDT",
      "contractAddress": "0x1648c0b178eebcb57aa31e3c62ee2b52bfd1a123",
      "function": "mint(address,uint256)",
      "arguments": [
        "0x28f90DB307f1c11855a940DD40e254055a9df0C3",
        "100000000000000000000"
      ],
      "transaction": {
        "from": "0xa2791e44234dc9c96f260ad15fdd09fe9b597fe1",
        "to": "0x1648c0b178eebcb57aa31e3c62ee2b52bfd1a123",
        "gas": "0x12843",
        "value": "0x0",
        "input": "0x40c10f1900000000000000000000000028f90db307f1c11855a940dd40e254055a9df0c30000000000000000000000000000000000000000000000056bc75e2d63100000",
        "nonce": "0xb9",
        "chainId": "0x61"
      },
      "additionalContracts": [],
      "isFixedGasLimit": false
    },
    {
      "hash": "0xa3427641f682469ce54f7ba278d9a05cdc6c7f2dd59f14bbbb2e52b5b78bbb94",
      "transactionType": "CREATE",
      "contractName": "KhoopDefi",
      "contractAddress": "0xbbc0105c05f828d715aa5a8b8aa438631ea1077a",
      "function": null,
      "arguments": [
        "[0x1199a2d927DEC05A6736543Ad864136d8b18FBEc, 0x7065fc73488a273046103518C49C11438B533de8, 0x754b633228CE785770670F645C6f427DDC804b99, 0x9EBAFaad6A9D13b2D03Dada966b52F4C2a6671dd]",
        "[0x6192CaCfD2DE48DA76f479f88183ca51e0ba8E2e, 0x6c03724c891dC2AA649dEf70E780061f2b72cCdE, 0x48a55480C9C94F9A7FEa4174A356ef6df3002c59, 0xf9185956b9dA818ACF151B2f397d45EFF317e0D3, 0x7937aF8eea4D307ABD880CC71a4390dc51fC6904, 0x08C388b03C08E373c162b09c0D50457dCcA67CFc, 0x4609284C9ae49F0A9A7EfE05AEcbDbAeE1107B5a, 0x975b079a73a8A80AB79522a8350771b403FF9Aa3, 0xB7Ce47e6049ab78Fc7b51a6E8d2B0A10Ab1Ee109, 0x2e647E04387Cb6d318581500A13f8E88E5222112, 0x0db3170B07a89aB6a11f5D7d32Cee8BF2F30844c, 0x5C10Ab8D08b7F640bA703E6b1C850324bcf22330, 0x4753b4a035220a8E33Bf879Fa4CaC7fbd32511B2, 0xBd630C32C65fd62377B06c1D521Ca0327e41e98E, 0x8F644929DA93294B8Cbf77DCEDFAe030A54D4D96]",
        "0x218922b1569f2945Ba5a0f3ef78f1e852219DbC2",
        "0xF081EFBd6B6bF95298Ea2173Ce8282E53f2d61FD",
        "0x28f90DB307f1c11855a940DD40e254055a9df0C3",
        "0x1648C0B178EEbCb57Aa31E3C62Ee2B52bfD1A123"
      ],
      "transaction": {
        "from": "0xa2791e44234dc9c96f260ad15fdd09fe9b597fe1",
        "gas": "0x47fc14",
        "value": "0x0",
        "input": "0x60a060405273a2791e44234dc9c96f260ad15fdd09fe9b597fe1601860006101000a81548173ffffffffffffffffffffffffffffffffffffffff021916908373ffffffffffffffffffffffffffffffffffffffff1602179055506001602255600160245534801561006f57600080fd5b50604051613f74380380613f7483398181016040528101906100919190610ba5565b336001600081905550600073ffffffffffffffffffffffffffffffffffffffff168173ffffffffffffffffffffffffffffffffffffffff160361010c5760006040517f1e4fbdf70000000000000000000000000000000000000000000000000000000081526004016101039190610c46565b60405180910390fd5b61011b816105be60201b60201c565b50600073ffffffffffffffffffffffffffffffffffffffff168473ffffffffffffffffffffffffffffffffffffffff1614806101835750600073ffffffffffffffffffffffffffffffffffffffff168373ffffffffffffffffffffffffffffffffffffffff16145b806101ba5750600073ffffffffffffffffffffffffffffffffffffffff168273ffffffffffffffffffffffffffffffffffffffff16145b806101f15750600073ffffffffffffffffffffffffffffffffffffffff168173ffffffffffffffffffffffffffffffffffffffff16145b15610228576040517f541e6d6300000000000000000000000000000000000000000000000000000000815260040160405180910390fd5b60005b60048110156103475786816004811061024757610246610c61565b5b6020020151600282600481106102605761025f610c61565b5b0160006101000a81548173ffffffffffffffffffffffffffffffffffffffff021916908373ffffffffffffffffffffffffffffffffffffffff160217905550600073ffffffffffffffffffffffffffffffffffffffff16600282600481106102cb576102ca610c61565b5b0160009054906101000a900473ffffffffffffffffffffffffffffffffffffffff1673ffffffffffffffffffffffffffffffffffffffff160361033a576040517f541e6d6300000000000000000000000000000000000000000000000000000000815260040160405180910390fd5b808060010191505061022b565b5060005b600f811015610467578581600f811061036757610366610c61565b5b6020020151600682600f81106103805761037f610c61565b5b0160006101000a81548173ffffffffffffffffffffffffffffffffffffffff021916908373ffffffffffffffffffffffffffffffffffffffff160217905550600073ffffffffffffffffffffffffffffffffffffffff16600682600f81106103eb576103ea610c61565b5b0160009054906101000a900473ffffffffffffffffffffffffffffffffffffffff1673ffffffffffffffffffffffffffffffffffffffff160361045a576040517f541e6d6300000000000000000000000000000000000000000000000000000000815260040160405180910390fd5b808060010191505061034b565b5081601760006101000a81548173ffffffffffffffffffffffffffffffffffffffff021916908373ffffffffffffffffffffffffffffffffffffffff1602179055506104fd601860009054906101000a900473ffffffffffffffffffffffffffffffffffffffff16601760009054906101000a900473ffffffffffffffffffffffffffffffffffffffff1661068160201b60201c565b83601560006101000a81548173ffffffffffffffffffffffffffffffffffffffff021916908373ffffffffffffffffffffffffffffffffffffffff16021790555082601660006101000a81548173ffffffffffffffffffffffffffffffffffffffff021916908373ffffffffffffffffffffffffffffffffffffffff1602179055508073ffffffffffffffffffffffffffffffffffffffff1660808173ffffffffffffffffffffffffffffffffffffffff1681525050505050505050610d11565b600060018054906101000a900473ffffffffffffffffffffffffffffffffffffffff169050816001806101000a81548173ffffffffffffffffffffffffffffffffffffffff021916908373ffffffffffffffffffffffffffffffffffffffff1602179055508173ffffffffffffffffffffffffffffffffffffffff168173ffffffffffffffffffffffffffffffffffffffff167f8be0079c531659141344cd1fd0a4f28419497f9722a3daafe3b4186f6b6457e060405160405180910390a35050565b6040518061014001604052808273ffffffffffffffffffffffffffffffffffffffff1681526020016000815260200160008152602001600081526020016000815260200160008152602001600081526020016000815260200142815260200160011515815250601960008473ffffffffffffffffffffffffffffffffffffffff1673ffffffffffffffffffffffffffffffffffffffff16815260200190815260200160002060008201518160000160006101000a81548173ffffffffffffffffffffffffffffffffffffffff021916908373ffffffffffffffffffffffffffffffffffffffff1602179055506020820151816001015560408201518160020155606082015181600301556080820151816004015560a0820151816005015560c0820151816006015560e0820151816007015561010082015181600801556101208201518160090160006101000a81548160ff021916908315150217905550905050600073ffffffffffffffffffffffffffffffffffffffff168173ffffffffffffffffffffffffffffffffffffffff16146108c757601960008273ffffffffffffffffffffffffffffffffffffffff1673ffffffffffffffffffffffffffffffffffffffff168152602001908152602001600020600501600081548092919061086990610cc9565b91905055506001601c60008473ffffffffffffffffffffffffffffffffffffffff1673ffffffffffffffffffffffffffffffffffffffff16815260200190815260200160002060006101000a81548160ff0219169083151502179055505b601d60000160008154809291906108dd90610cc9565b91905055508073ffffffffffffffffffffffffffffffffffffffff168273ffffffffffffffffffffffffffffffffffffffff167f2138b9314634f9fdd5e49bee3eaf17ca557b6637524d0db759711c3bfcd3d85060405160405180910390a35050565b6000604051905090565b600080fd5b600080fd5b6000601f19601f8301169050919050565b7f4e487b7100000000000000000000000000000000000000000000000000000000600052604160045260246000fd5b61099d82610954565b810181811067ffffffffffffffff821117156109bc576109bb610965565b5b80604052505050565b60006109cf610940565b90506109db8282610994565b919050565b600067ffffffffffffffff8211156109fb576109fa610965565b5b602082029050919050565b600080fd5b600073ffffffffffffffffffffffffffffffffffffffff82169050919050565b6000610a3682610a0b565b9050919050565b610a4681610a2b565b8114610a5157600080fd5b50565b600081519050610a6381610a3d565b92915050565b6000610a7c610a77846109e0565b6109c5565b90508060208402830185811115610a9657610a95610a06565b5b835b81811015610abf5780610aab8882610a54565b845260208401935050602081019050610a98565b5050509392505050565b600082601f830112610ade57610add61094f565b5b6004610aeb848285610a69565b91505092915050565b600067ffffffffffffffff821115610b0f57610b0e610965565b5b602082029050919050565b6000610b2d610b2884610af4565b6109c5565b90508060208402830185811115610b4757610b46610a06565b5b835b81811015610b705780610b5c8882610a54565b845260208401935050602081019050610b49565b5050509392505050565b600082601f830112610b8f57610b8e61094f565b5b600f610b9c848285610b1a565b91505092915050565b6000806000806000806102e08789031215610bc357610bc261094a565b5b6000610bd189828a01610ac9565b9650506080610be289828a01610b7a565b955050610260610bf489828a01610a54565b945050610280610c0689828a01610a54565b9350506102a0610c1889828a01610a54565b9250506102c0610c2a89828a01610a54565b9150509295509295509295565b610c4081610a2b565b82525050565b6000602082019050610c5b6000830184610c37565b92915050565b7f4e487b7100000000000000000000000000000000000000000000000000000000600052603260045260246000fd5b7f4e487b7100000000000000000000000000000000000000000000000000000000600052601160045260246000fd5b6000819050919050565b6000610cd482610cbf565b91507fffffffffffffffffffffffffffffffffffffffffffffffffffffffffffffffff8203610d0657610d05610c90565b5b600182019050919050565b6080516131fb610d79600039600081816108a201528181610aa201528181610ca701528181610da001528181611107015281816111df01528181611e870152818161236a015281816124040152818161247f01528181612737015261299901526131fb6000f3fe608060405234801561001057600080fd5b50600436106101f05760003560e01c806395ccea671161010f578063d72b11bd116100a2578063e6b2cf6c11610071578063e6b2cf6c14610592578063eb961dfa146105b0578063f2fde38b146105ce578063f535d435146105ea576101f0565b8063d72b11bd14610516578063deab8aea14610534578063e2f384db14610552578063e4dc4efc14610570576101f0565b8063acf5575f116100de578063acf5575f14610488578063b30906d4146104a6578063b74a7fc5146104da578063c206e766146104f8576101f0565b806395ccea67146103f95780639f060295146104155780639f3ee8ef14610431578063a87430ba1461044f576101f0565b806356ffb6c011610187578063715018a611610156578063715018a6146103a95780638456cb59146103b35780638da5cb5b146103bd5780638ea5220f146103db576101f0565b806356ffb6c01461032f5780635c975abb1461034b5780636b4169c3146103695780636f9fb98a1461038b576101f0565b80632f48ab7d116101c35780632f48ab7d146102b5578063314359fd146102d35780633f4ba83a146102f15780634e43603a146102fb576101f0565b8063017e2d5f146101f55780630b913af0146102255780630f7c7526146102555780631a267cd214610285575b600080fd5b61020f600480360381019061020a9190612ae6565b61061a565b60405161021c9190612b54565b60405180910390f35b61023f600480360381019061023a9190612b9b565b610650565b60405161024c9190612bea565b60405180910390f35b61026f600480360381019061026a9190612c05565b610681565b60405161027c9190612cf0565b60405180910390f35b61029f600480360381019061029a9190612c05565b610880565b6040516102ac9190612d2d565b60405180910390f35b6102bd6108a0565b6040516102ca9190612da7565b60405180910390f35b6102db6108c4565b6040516102e89190612bea565b60405180910390f35b6102f96108c9565b005b61031560048036038101906103109190612c05565b6108db565b604051610326959493929190612dc2565b60405180910390f35b61034960048036038101906103449190612ae6565b610952565b005b610353610d4e565b6040516103609190612d2d565b60405180910390f35b610371610d65565b604051610382959493929190612dc2565b60405180910390f35b610393610d9c565b6040516103a09190612bea565b60405180910390f35b6103b1610e3d565b005b6103bb610e51565b005b6103c5610e63565b6040516103d29190612b54565b60405180910390f35b6103e3610e8b565b6040516103f09190612b54565b60405180910390f35b610413600480360381019061040e9190612b9b565b610eb1565b005b61042f600480360381019061042a9190612e15565b610eef565b005b610439611511565b6040516104469190612bea565b60405180910390f35b61046960048036038101906104649190612c05565b611517565b60405161047f9a99989796959493929190612e55565b60405180910390f35b610490611598565b60405161049d9190612bea565b60405180910390f35b6104c060048036038101906104bb9190612ae6565b61159e565b6040516104d1959493929190612ef1565b60405180910390f35b6104e2611601565b6040516104ef9190612bea565b60405180910390f35b61050061160b565b60405161050d9190612b54565b60405180910390f35b61051e611631565b60405161052b9190612b54565b60405180910390f35b61053c611657565b6040516105499190612b54565b60405180910390f35b61055a61167d565b6040516105679190612bea565b60405180910390f35b610578611687565b604051610589959493929190612dc2565b60405180910390f35b61059a6116ab565b6040516105a79190612bea565b60405180910390f35b6105b86116b1565b6040516105c59190612bea565b60405180910390f35b6105e860048036038101906105e39190612c05565b6116b7565b005b61060460048036038101906105ff9190612ae6565b61173d565b6040516106119190612b54565b60405180910390f35b600681600f811061062a57600080fd5b016000915054906101000a900473ffffffffffffffffffffffffffffffffffffffff1681565b601b602052816000526040600020818154811061066c57600080fd5b90600052602060002001600091509150505481565b60606000601b60008473ffffffffffffffffffffffffffffffffffffffff1673ffffffffffffffffffffffffffffffffffffffff16815260200190815260200160002080548060200260200160405190810160405280929190818152602001828054801561070e57602002820191906000526020600020905b8154815260200190600101908083116106fa575b505050505090506000805b825181101561078057601a600084838151811061073957610738612f44565b5b6020026020010151815260200190815260200160002060030160009054906101000a900460ff1661077357818061076f90612fa2565b9250505b8080600101915050610719565b5060008167ffffffffffffffff81111561079d5761079c612fea565b5b6040519080825280602002602001820160405280156107cb5781602001602082028036833780820191505090505b5090506000805b845181101561087357601a60008683815181106107f2576107f1612f44565b5b6020026020010151815260200190815260200160002060030160009054906101000a900460ff16610866578481815181106108305761082f612f44565b5b602002602001015183838151811061084b5761084a612f44565b5b602002602001018181525050818061086290612fa2565b9250505b80806001019150506107d2565b5081945050505050919050565b601c6020528060005260406000206000915054906101000a900460ff1681565b7f000000000000000000000000000000000000000000000000000000000000000081565b600581565b6108d1611773565b6108d96117fa565b565b600080600080600080601960008873ffffffffffffffffffffffffffffffffffffffff1673ffffffffffffffffffffffffffffffffffffffff168152602001908152602001600020905080600101548160020154826003015483600401548460050154955095509550955095505091939590929450565b61095a61185d565b6109626118a3565b6000601a600083815260200190815260200160002090503373ffffffffffffffffffffffffffffffffffffffff168160010160009054906101000a900473ffffffffffffffffffffffffffffffffffffffff1673ffffffffffffffffffffffffffffffffffffffff1614610a02576040517f326bb60900000000000000000000000000000000000000000000000000000000815260040160405180910390fd5b8060030160009054906101000a900460ff1615610a4b576040517f9bea751d00000000000000000000000000000000000000000000000000000000815260040160405180910390fd5b620151808160020154610a5e9190613019565b421015610a97576040517fa616757600000000000000000000000000000000000000000000000000000000815260040160405180910390fd5b674563918244f400007f000000000000000000000000000000000000000000000000000000000000000073ffffffffffffffffffffffffffffffffffffffff166370a08231306040518263ffffffff1660e01b8152600401610af99190612b54565b602060405180830381865afa158015610b16573d6000803e3d6000fd5b505050506040513d601f19601f82011682018060405250810190610b3a9190613062565b1015610b72576040517fa42dbc8400000000000000000000000000000000000000000000000000000000815260040160405180910390fd5b601960003373ffffffffffffffffffffffffffffffffffffffff1673ffffffffffffffffffffffffffffffffffffffff1681526020019081526020016000206002016000815480929190610bc590612fa2565b9190505550674563918244f40000601960003373ffffffffffffffffffffffffffffffffffffffff1673ffffffffffffffffffffffffffffffffffffffff1681526020019081526020016000206004016000828254610c249190613019565b92505081905550601d6004016000815480929190610c4190612fa2565b9190505550674563918244f40000601d6003016000828254610c639190613019565b9250508190555060018160030160006101000a81548160ff021916908315150217905550428160040181905550610c986118e4565b610ceb33674563918244f400007f000000000000000000000000000000000000000000000000000000000000000073ffffffffffffffffffffffffffffffffffffffff166119389092919063ffffffff16565b3373ffffffffffffffffffffffffffffffffffffffff16827f08e3a72d0985a61a8bf8b906213f603804d732526cf95267a4120345505a08a1674563918244f40000604051610d3a9190612bea565b60405180910390a350610d4b6119b7565b50565b6000600160009054906101000a900460ff16905090565b6000806000806000601d60000154601d60010154601d60020154601d60030154601d60040154945094509450945094509091929394565b60007f000000000000000000000000000000000000000000000000000000000000000073ffffffffffffffffffffffffffffffffffffffff166370a08231306040518263ffffffff1660e01b8152600401610df79190612b54565b602060405180830381865afa158015610e14573d6000803e3d6000fd5b505050506040513d601f19601f82011682018060405250810190610e389190613062565b905090565b610e45611773565b610e4f60006119c1565b565b610e59611773565b610e61611a84565b565b600060018054906101000a900473ffffffffffffffffffffffffffffffffffffffff16905090565b601860009054906101000a900473ffffffffffffffffffffffffffffffffffffffff1681565b610eb9611773565b610eeb610ec4610e63565b828473ffffffffffffffffffffffffffffffffffffffff166119389092919063ffffffff16565b5050565b610ef761185d565b610eff6118a3565b80601960003373ffffffffffffffffffffffffffffffffffffffff1673ffffffffffffffffffffffffffffffffffffffff16815260200190815260200160002060090160009054906101000a900460ff166110a657600073ffffffffffffffffffffffffffffffffffffffff168173ffffffffffffffffffffffffffffffffffffffff1603610fba576040517f02e7027600000000000000000000000000000000000000000000000000000000815260040160405180910390fd5b3373ffffffffffffffffffffffffffffffffffffffff168173ffffffffffffffffffffffffffffffffffffffff160361101f576040517f02e7027600000000000000000000000000000000000000000000000000000000815260040160405180910390fd5b601960008273ffffffffffffffffffffffffffffffffffffffff1673ffffffffffffffffffffffffffffffffffffffff16815260200190815260200160002060090160009054906101000a900460ff166110a5576040517f02e7027600000000000000000000000000000000000000000000000000000000815260040160405180910390fd5b5b60008314806110b55750600a83115b156110ec576040517fc7e370bf00000000000000000000000000000000000000000000000000000000815260040160405180910390fd5b60008367d02ab486cedc0000611102919061308f565b9050807f000000000000000000000000000000000000000000000000000000000000000073ffffffffffffffffffffffffffffffffffffffff166370a08231336040518263ffffffff1660e01b815260040161115e9190612b54565b602060405180830381865afa15801561117b573d6000803e3d6000fd5b505050506040513d601f19601f8201168201806040525081019061119f9190613062565b10156111d7576040517fa42dbc8400000000000000000000000000000000000000000000000000000000815260040160405180910390fd5b6112243330837f000000000000000000000000000000000000000000000000000000000000000073ffffffffffffffffffffffffffffffffffffffff16611ae6909392919063ffffffff16565b601960003373ffffffffffffffffffffffffffffffffffffffff1673ffffffffffffffffffffffffffffffffffffffff16815260200190815260200160002060090160009054906101000a900460ff16611283576112823384611b68565b5b61128d3385611fac565b6000601960003373ffffffffffffffffffffffffffffffffffffffff1673ffffffffffffffffffffffffffffffffffffffff168152602001908152602001600020600601541415801561132e5750610258601960003373ffffffffffffffffffffffffffffffffffffffff1673ffffffffffffffffffffffffffffffffffffffff1681526020019081526020016000206006015461132b9190613019565b42105b15611364576040517e64a7a100000000000000000000000000000000000000000000000000000000815260040160405180910390fd5b60005b848110156113855761137833612178565b8080600101915050611367565b5083601960003373ffffffffffffffffffffffffffffffffffffffff1673ffffffffffffffffffffffffffffffffffffffff16815260200190815260200160002060010160008282546113d89190613019565b9250508190555042601960003373ffffffffffffffffffffffffffffffffffffffff1673ffffffffffffffffffffffffffffffffffffffff1681526020019081526020016000206006018190555083601d600101600082825461143b9190613019565b925050819055506729a2241af62c000084611456919061308f565b602360008282546114679190613019565b92505081905550611477846122db565b61147f612511565b8273ffffffffffffffffffffffffffffffffffffffff163373ffffffffffffffffffffffffffffffffffffffff167f651342e7ca556a11c86e3a91454b2d69e1d934a3bef4f5c87c2dac528878a7a2866022546114dc91906130d1565b60016022546114eb91906130d1565b856040516114fb93929190613105565b60405180910390a3505061150d6119b7565b5050565b60235481565b60196020528060005260406000206000915090508060000160009054906101000a900473ffffffffffffffffffffffffffffffffffffffff16908060010154908060020154908060030154908060040154908060050154908060060154908060070154908060080154908060090160009054906101000a900460ff1690508a565b60245481565b601a6020528060005260406000206000915090508060000154908060010160009054906101000a900473ffffffffffffffffffffffffffffffffffffffff16908060020154908060030160009054906101000a900460ff16908060040154905085565b6000602554905090565b601760009054906101000a900473ffffffffffffffffffffffffffffffffffffffff1681565b601560009054906101000a900473ffffffffffffffffffffffffffffffffffffffff1681565b601660009054906101000a900473ffffffffffffffffffffffffffffffffffffffff1681565b6000602354905090565b601d8060000154908060010154908060020154908060030154908060040154905085565b60225481565b60255481565b6116bf611773565b600073ffffffffffffffffffffffffffffffffffffffff168173ffffffffffffffffffffffffffffffffffffffff16036117315760006040517f1e4fbdf70000000000000000000000000000000000000000000000000000000081526004016117289190612b54565b60405180910390fd5b61173a816119c1565b50565b6002816004811061174d57600080fd5b016000915054906101000a900473ffffffffffffffffffffffffffffffffffffffff1681565b61177b6125c8565b73ffffffffffffffffffffffffffffffffffffffff16611799610e63565b73ffffffffffffffffffffffffffffffffffffffff16146117f8576117bc6125c8565b6040517f118cdaa70000000000000000000000000000000000000000000000000000000081526004016117ef9190612b54565b60405180910390fd5b565b6118026125d0565b6000600160006101000a81548160ff0219169083151502179055507f5db9ee0a495bf2e6ff9c91a7834c1ba4fdd244a5e8aa4e537bd38aeae4b073aa6118466125c8565b6040516118539190612b54565b60405180910390a1565b600260005403611899576040517f3ee5aeb500000000000000000000000000000000000000000000000000000000815260040160405180910390fd5b6002600081905550565b6118ab610d4e565b156118e2576040517fd93c066500000000000000000000000000000000000000000000000000000000815260040160405180910390fd5b565b5b60225460245410801561191a5750601a6000602454815260200190815260200160002060030160009054906101000a900460ff165b15611936576024600081548092919060010191905055506118e5565b565b6119b2838473ffffffffffffffffffffffffffffffffffffffff1663a9059cbb858560405160240161196b92919061313c565b604051602081830303815290604052915060e01b6020820180517bffffffffffffffffffffffffffffffffffffffffffffffffffffffff8381831617835250505050612610565b505050565b6001600081905550565b600060018054906101000a900473ffffffffffffffffffffffffffffffffffffffff169050816001806101000a81548173ffffffffffffffffffffffffffffffffffffffff021916908373ffffffffffffffffffffffffffffffffffffffff1602179055508173ffffffffffffffffffffffffffffffffffffffff168173ffffffffffffffffffffffffffffffffffffffff167f8be0079c531659141344cd1fd0a4f28419497f9722a3daafe3b4186f6b6457e060405160405180910390a35050565b611a8c6118a3565b60018060006101000a81548160ff0219169083151502179055507f62e78cea01bee320cd4e420270b5ea74000d11b0c9f74754ebdbfc544b05a258611acf6125c8565b604051611adc9190612b54565b60405180910390a1565b611b62848573ffffffffffffffffffffffffffffffffffffffff166323b872dd868686604051602401611b1b93929190613165565b604051602081830303815290604052915060e01b6020820180517bffffffffffffffffffffffffffffffffffffffffffffffffffffffff8381831617835250505050612610565b50505050565b6040518061014001604052808273ffffffffffffffffffffffffffffffffffffffff1681526020016000815260200160008152602001600081526020016000815260200160008152602001600081526020016000815260200142815260200160011515815250601960008473ffffffffffffffffffffffffffffffffffffffff1673ffffffffffffffffffffffffffffffffffffffff16815260200190815260200160002060008201518160000160006101000a81548173ffffffffffffffffffffffffffffffffffffffff021916908373ffffffffffffffffffffffffffffffffffffffff1602179055506020820151816001015560408201518160020155606082015181600301556080820151816004015560a0820151816005015560c0820151816006015560e0820151816007015561010082015181600801556101208201518160090160006101000a81548160ff021916908315150217905550905050600073ffffffffffffffffffffffffffffffffffffffff168173ffffffffffffffffffffffffffffffffffffffff1614611f3357601960008273ffffffffffffffffffffffffffffffffffffffff1673ffffffffffffffffffffffffffffffffffffffff1681526020019081526020016000206005016000815480929190611d5090612fa2565b9190505550601c60008373ffffffffffffffffffffffffffffffffffffffff1673ffffffffffffffffffffffffffffffffffffffff16815260200190815260200160002060009054906101000a900460ff16611f32576001601c60008473ffffffffffffffffffffffffffffffffffffffff1673ffffffffffffffffffffffffffffffffffffffff16815260200190815260200160002060006101000a81548160ff0219169083151502179055506000670de0b6b3a7640000905080601960008473ffffffffffffffffffffffffffffffffffffffff1673ffffffffffffffffffffffffffffffffffffffff1681526020019081526020016000206003016000828254611e5d9190613019565b9250508190555080601d6002016000828254611e799190613019565b92505081905550611ecb82827f000000000000000000000000000000000000000000000000000000000000000073ffffffffffffffffffffffffffffffffffffffff166119389092919063ffffffff16565b8273ffffffffffffffffffffffffffffffffffffffff168273ffffffffffffffffffffffffffffffffffffffff167faa2a51ccfceddd37e6182b6fda9452c54875369da83c2bdecf40fc515bde8e2083604051611f289190612bea565b60405180910390a3505b5b601d6000016000815480929190611f4990612fa2565b91905055508073ffffffffffffffffffffffffffffffffffffffff168273ffffffffffffffffffffffffffffffffffffffff167f2138b9314634f9fdd5e49bee3eaf17ca557b6637524d0db759711c3bfcd3d85060405160405180910390a35050565b62015180601960008473ffffffffffffffffffffffffffffffffffffffff1673ffffffffffffffffffffffffffffffffffffffff16815260200190815260200160002060080154611ffd9190613019565b4210612093576000601960008473ffffffffffffffffffffffffffffffffffffffff1673ffffffffffffffffffffffffffffffffffffffff1681526020019081526020016000206007018190555042601960008473ffffffffffffffffffffffffffffffffffffffff1673ffffffffffffffffffffffffffffffffffffffff168152602001908152602001600020600801819055505b603281601960008573ffffffffffffffffffffffffffffffffffffffff1673ffffffffffffffffffffffffffffffffffffffff168152602001908152602001600020600701546120e39190613019565b111561211b576040517f8ce116d300000000000000000000000000000000000000000000000000000000815260040160405180910390fd5b80601960008473ffffffffffffffffffffffffffffffffffffffff1673ffffffffffffffffffffffffffffffffffffffff168152602001908152602001600020600701600082825461216d9190613019565b925050819055505050565b6040518060a0016040528060225481526020018273ffffffffffffffffffffffffffffffffffffffff1681526020014281526020016000151581526020016000815250601a600060225481526020019081526020016000206000820151816000015560208201518160010160006101000a81548173ffffffffffffffffffffffffffffffffffffffff021916908373ffffffffffffffffffffffffffffffffffffffff1602179055506040820151816002015560608201518160030160006101000a81548160ff02191690831515021790555060808201518160040155905050601b60008273ffffffffffffffffffffffffffffffffffffffff1673ffffffffffffffffffffffffffffffffffffffff1681526020019081526020016000206022549080600181540180825580915050600190039060005260206000200160009091909190915055602260008154809291906122d390612fa2565b919050555050565b600081670214e8348c4f00006122f1919061308f565b905060008266470de4df820000612308919061308f565b905060008367016345785d8a0000612320919061308f565b905060005b60048110156123bb576123ae6002826004811061234557612344612f44565b5b0160009054906101000a900473ffffffffffffffffffffffffffffffffffffffff16857f000000000000000000000000000000000000000000000000000000000000000073ffffffffffffffffffffffffffffffffffffffff166119389092919063ffffffff16565b8080600101915050612325565b5060005b600f81101561245557612448600682600f81106123df576123de612f44565b5b0160009054906101000a900473ffffffffffffffffffffffffffffffffffffffff16847f000000000000000000000000000000000000000000000000000000000000000073ffffffffffffffffffffffffffffffffffffffff166119389092919063ffffffff16565b80806001019150506123bf565b506124c3601560009054906101000a900473ffffffffffffffffffffffffffffffffffffffff16827f000000000000000000000000000000000000000000000000000000000000000073ffffffffffffffffffffffffffffffffffffffff166119389092919063ffffffff16565b83602560008282546124d59190613019565b925050819055506025547f1afefe35e8f8611e39bdd33cc37912dddd1c7c4f00646194677e5c5734bbe05360405160405180910390a250505050565b600080600590505b678ac7230489e800006023541015801561253257508082105b1561257f5760006125416126b2565b905060008103612551575061257f565b600061255c826126d9565b90508061256a57505061257f565b838061257590612fa2565b9450505050612519565b60008211156125c4577f83120d444a0edbdb1abaf0d4dc8eab7208b0c4f557c4957c9fd9f85c194a74eb826023546040516125bb92919061319c565b60405180910390a15b5050565b600033905090565b6125d8610d4e565b61260e576040517f8dfc202b00000000000000000000000000000000000000000000000000000000815260040160405180910390fd5b565b600080602060008451602086016000885af180612633576040513d6000823e3d81fd5b3d92506000519150506000821461264e57600181141561266a565b60008473ffffffffffffffffffffffffffffffffffffffff163b145b156126ac57836040517f5274afe70000000000000000000000000000000000000000000000000000000081526004016126a39190612b54565b60405180910390fd5b50505050565b60006126bc6118e4565b602254602454106126d057600090506126d6565b60245490505b90565b600080601a600084815260200190815260200160002090506000831480612704575060008160000154145b8061271d57508060030160009054906101000a900460ff165b1561272c576000915050612aa6565b674563918244f400007f000000000000000000000000000000000000000000000000000000000000000073ffffffffffffffffffffffffffffffffffffffff166370a08231306040518263ffffffff1660e01b815260040161278e9190612b54565b602060405180830381865afa1580156127ab573d6000803e3d6000fd5b505050506040513d601f19601f820116820180604052508101906127cf9190613062565b10156127df576000915050612aa6565b601960008260010160009054906101000a900473ffffffffffffffffffffffffffffffffffffffff1673ffffffffffffffffffffffffffffffffffffffff1673ffffffffffffffffffffffffffffffffffffffff168152602001908152602001600020600201600081548092919061285690612fa2565b9190505550674563918244f40000601960008360010160009054906101000a900473ffffffffffffffffffffffffffffffffffffffff1673ffffffffffffffffffffffffffffffffffffffff1673ffffffffffffffffffffffffffffffffffffffff16815260200190815260200160002060040160008282546128d99190613019565b92505081905550601d60040160008154809291906128f690612fa2565b9190505550674563918244f40000601d60030160008282546129189190613019565b92505081905550678ac7230489e800006023600082825461293991906130d1565b9250508190555060018160030160006101000a81548160ff0219169083151502179055504281600401819055506129dd8160010160009054906101000a900473ffffffffffffffffffffffffffffffffffffffff16674563918244f400007f000000000000000000000000000000000000000000000000000000000000000073ffffffffffffffffffffffffffffffffffffffff166119389092919063ffffffff16565b6129e56118e4565b8060010160009054906101000a900473ffffffffffffffffffffffffffffffffffffffff1673ffffffffffffffffffffffffffffffffffffffff16837f08e3a72d0985a61a8bf8b906213f603804d732526cf95267a4120345505a08a1674563918244f40000604051612a589190612bea565b60405180910390a3827f8d2ea1fed67e6c42078fa2c08c86b1a9c4af01f130f315cb9480ef71b2734258678ac7230489e80000604051612a989190612bea565b60405180910390a260019150505b919050565b600080fd5b6000819050919050565b612ac381612ab0565b8114612ace57600080fd5b50565b600081359050612ae081612aba565b92915050565b600060208284031215612afc57612afb612aab565b5b6000612b0a84828501612ad1565b91505092915050565b600073ffffffffffffffffffffffffffffffffffffffff82169050919050565b6000612b3e82612b13565b9050919050565b612b4e81612b33565b82525050565b6000602082019050612b696000830184612b45565b92915050565b612b7881612b33565b8114612b8357600080fd5b50565b600081359050612b9581612b6f565b92915050565b60008060408385031215612bb257612bb1612aab565b5b6000612bc085828601612b86565b9250506020612bd185828601612ad1565b9150509250929050565b612be481612ab0565b82525050565b6000602082019050612bff6000830184612bdb565b92915050565b600060208284031215612c1b57612c1a612aab565b5b6000612c2984828501612b86565b91505092915050565b600081519050919050565b600082825260208201905092915050565b6000819050602082019050919050565b612c6781612ab0565b82525050565b6000612c798383612c5e565b60208301905092915050565b6000602082019050919050565b6000612c9d82612c32565b612ca78185612c3d565b9350612cb283612c4e565b8060005b83811015612ce3578151612cca8882612c6d565b9750612cd583612c85565b925050600181019050612cb6565b5085935050505092915050565b60006020820190508181036000830152612d0a8184612c92565b905092915050565b60008115159050919050565b612d2781612d12565b82525050565b6000602082019050612d426000830184612d1e565b92915050565b6000819050919050565b6000612d6d612d68612d6384612b13565b612d48565b612b13565b9050919050565b6000612d7f82612d52565b9050919050565b6000612d9182612d74565b9050919050565b612da181612d86565b82525050565b6000602082019050612dbc6000830184612d98565b92915050565b600060a082019050612dd76000830188612bdb565b612de46020830187612bdb565b612df16040830186612bdb565b612dfe6060830185612bdb565b612e0b6080830184612bdb565b9695505050505050565b60008060408385031215612e2c57612e2b612aab565b5b6000612e3a85828601612ad1565b9250506020612e4b85828601612b86565b9150509250929050565b600061014082019050612e6b600083018d612b45565b612e78602083018c612bdb565b612e85604083018b612bdb565b612e92606083018a612bdb565b612e9f6080830189612bdb565b612eac60a0830188612bdb565b612eb960c0830187612bdb565b612ec660e0830186612bdb565b612ed4610100830185612bdb565b612ee2610120830184612d1e565b9b9a5050505050505050505050565b600060a082019050612f066000830188612bdb565b612f136020830187612b45565b612f206040830186612bdb565b612f2d6060830185612d1e565b612f3a6080830184612bdb565b9695505050505050565b7f4e487b7100000000000000000000000000000000000000000000000000000000600052603260045260246000fd5b7f4e487b7100000000000000000000000000000000000000000000000000000000600052601160045260246000fd5b6000612fad82612ab0565b91507fffffffffffffffffffffffffffffffffffffffffffffffffffffffffffffffff8203612fdf57612fde612f73565b5b600182019050919050565b7f4e487b7100000000000000000000000000000000000000000000000000000000600052604160045260246000fd5b600061302482612ab0565b915061302f83612ab0565b925082820190508082111561304757613046612f73565b5b92915050565b60008151905061305c81612aba565b92915050565b60006020828403121561307857613077612aab565b5b60006130868482850161304d565b91505092915050565b600061309a82612ab0565b91506130a583612ab0565b92508282026130b381612ab0565b915082820484148315176130ca576130c9612f73565b5b5092915050565b60006130dc82612ab0565b91506130e783612ab0565b92508282039050818111156130ff576130fe612f73565b5b92915050565b600060608201905061311a6000830186612bdb565b6131276020830185612bdb565b6131346040830184612bdb565b949350505050565b60006040820190506131516000830185612b45565b61315e6020830184612bdb565b9392505050565b600060608201905061317a6000830186612b45565b6131876020830185612b45565b6131946040830184612bdb565b949350505050565b60006040820190506131b16000830185612bdb565b6131be6020830184612bdb565b939250505056fea264697066735822122061170dc47392a98cfe64b19f3f7cfade1addbfd4cddbc8f4a61dc73d140fb64a64736f6c634300081e00330000000000000000000000001199a2d927dec05a6736543ad864136d8b18fbec0000000000000000000000007065fc73488a273046103518c49c11438b533de8000000000000000000000000754b633228ce785770670f645c6f427ddc804b990000000000000000000000009ebafaad6a9d13b2d03dada966b52f4c2a6671dd0000000000000000000000006192cacfd2de48da76f479f88183ca51e0ba8e2e0000000000000000000000006c03724c891dc2aa649def70e780061f2b72ccde00000000000000000000000048a55480c9c94f9a7fea4174a356ef6df3002c59000000000000000000000000f9185956b9da818acf151b2f397d45eff317e0d30000000000000000000000007937af8eea4d307abd880cc71a4390dc51fc690400000000000000000000000008c388b03c08e373c162b09c0d50457dcca67cfc0000000000000000000000004609284c9ae49f0a9a7efe05aecbdbaee1107b5a000000000000000000000000975b079a73a8a80ab79522a8350771b403ff9aa3000000000000000000000000b7ce47e6049ab78fc7b51a6e8d2b0a10ab1ee1090000000000000000000000002e647e04387cb6d318581500a13f8e88e52221120000000000000000000000000db3170b07a89ab6a11f5d7d32cee8bf2f30844c0000000000000000000000005c10ab8d08b7f640ba703e6b1c850324bcf223300000000000000000000000004753b4a035220a8e33bf879fa4cac7fbd32511b2000000000000000000000000bd630c32c65fd62377b06c1d521ca0327e41e98e0000000000000000000000008f644929da93294b8cbf77dcedfae030a54d4d96000000000000000000000000218922b1569f2945ba5a0f3ef78f1e852219dbc2000000000000000000000000f081efbd6b6bf95298ea2173ce8282e53f2d61fd00000000000000000000000028f90db307f1c11855a940dd40e254055a9df0c30000000000000000000000001648c0b178eebcb57aa31e3c62ee2b52bfd1a123",
        "nonce": "0xba",
        "chainId": "0x61"
      },
      "additionalContracts": [],
      "isFixedGasLimit": false
    },
    {
      "hash": "0x2a9cf6b5d3a53cbae6421cbd63e2283452fda7cc6be3952f5261122f1c4f6bed",
      "transactionType": "CALL",
      "contractName": "MockUSDT",
      "contractAddress": "0x1648c0b178eebcb57aa31e3c62ee2b52bfd1a123",
      "function": "mint(address,uint256)",
      "arguments": [
        "0xbbC0105c05F828d715AA5a8b8AA438631ea1077A",
        "100000000000000000000"
      ],
      "transaction": {
        "from": "0xa2791e44234dc9c96f260ad15fdd09fe9b597fe1",
        "to": "0x1648c0b178eebcb57aa31e3c62ee2b52bfd1a123",
        "gas": "0x12843",
        "value": "0x0",
        "input": "0x40c10f19000000000000000000000000bbc0105c05f828d715aa5a8b8aa438631ea1077a0000000000000000000000000000000000000000000000056bc75e2d63100000",
        "nonce": "0xbb",
        "chainId": "0x61"
      },
      "additionalContracts": [],
      "isFixedGasLimit": false
    }
  ],
  "receipts": [
    {
      "status": "0x1",
      "cumulativeGasUsed": "0xe5ded",
      "logs": [],
      "logsBloom": "0x00000000000000000000000000000000000000000000000000000000000000000000000000000000000000000000000000000000000000000000000000000000000000000000000000000000000000000000000000000000000000000000000000000000000000000000000000000000000000000000000000000000000000000000000000000000000000000000000000000000000000000000000000000000000000000000000000000000000000000000000000000000000000000000000000000000000000000000000000000000000000000000000000000000000000000000000000000000000000000000000000000000000000000000000000000000",
      "type": "0x0",
      "transactionHash": "0x40014c01861669f3ee8a8ee9c91ad5c181c1e6fdf88c31bcffc2097ff3459d9a",
      "transactionIndex": "0x0",
      "blockHash": "0x2eee4873b35cf79fb93b3a91dfa3a8e05415c9951e23022278037922cd5b503c",
      "blockNumber": "0x3dea6cd",
      "gasUsed": "0xe5ded",
      "effectiveGasPrice": "0x5f5e100",
      "from": "0xa2791e44234dc9c96f260ad15fdd09fe9b597fe1",
      "to": null,
      "contractAddress": "0x1648c0b178eebcb57aa31e3c62ee2b52bfd1a123"
    },
    {
      "status": "0x1",
      "cumulativeGasUsed": "0xf6b4c",
      "logs": [
        {
          "address": "0x1648c0b178eebcb57aa31e3c62ee2b52bfd1a123",
          "topics": [
            "0xddf252ad1be2c89b69c2b068fc378daa952ba7f163c4a11628f55a4df523b3ef",
            "0x0000000000000000000000000000000000000000000000000000000000000000",
            "0x000000000000000000000000a2791e44234dc9c96f260ad15fdd09fe9b597fe1"
          ],
          "data": "0x0000000000000000000000000000000000000000000000056bc75e2d63100000",
          "blockHash": "0x2eee4873b35cf79fb93b3a91dfa3a8e05415c9951e23022278037922cd5b503c",
          "blockNumber": "0x3dea6cd",
          "transactionHash": "0x3aff60afe81fd0e757873255a2f0f5088eff17cc6650b50efcd4398e340fc574",
          "transactionIndex": "0x1",
          "logIndex": "0x0",
          "removed": false
        }
      ],
      "logsBloom": "0x00000000000000000000000000000000000000000000000000000000000000000000000000000000000000000000000000000000000000000000008000000000000000000000000000000008000000000000000000000000000000000000000000000000020000000000000000000800000000000000000000000010000000000000004000080000000000000000000000000000000000000000000000000000000000000000000000000000000000000000000002000000000000000000000000001002000000000000000000000000000000000000000000000000000020000000000000000000000000000000000000000000000000008000000000000000",
      "type": "0x0",
      "transactionHash": "0x3aff60afe81fd0e757873255a2f0f5088eff17cc6650b50efcd4398e340fc574",
      "transactionIndex": "0x1",
      "blockHash": "0x2eee4873b35cf79fb93b3a91dfa3a8e05415c9951e23022278037922cd5b503c",
      "blockNumber": "0x3dea6cd",
      "gasUsed": "0x10d5f",
      "effectiveGasPrice": "0x5f5e100",
      "from": "0xa2791e44234dc9c96f260ad15fdd09fe9b597fe1",
      "to": "0x1648c0b178eebcb57aa31e3c62ee2b52bfd1a123",
      "contractAddress": null
    },
    {
      "status": "0x1",
      "cumulativeGasUsed": "0x11c9b",
      "logs": [
        {
          "address": "0x1648c0b178eebcb57aa31e3c62ee2b52bfd1a123",
          "topics": [
            "0xddf252ad1be2c89b69c2b068fc378daa952ba7f163c4a11628f55a4df523b3ef",
            "0x0000000000000000000000000000000000000000000000000000000000000000",
            "0x0000000000000000000000001199a2d927dec05a6736543ad864136d8b18fbec"
          ],
          "data": "0x0000000000000000000000000000000000000000000000056bc75e2d63100000",
          "blockHash": "0x9213a0e07876179e19bb78372386115c9de858e00e36920603d76985493667a9",
          "blockNumber": "0x3dea6ce",
          "transactionHash": "0x95622fd1a6721d6ddebecf482dd343ffe2fb9b50f1fcc0b14f5f4d3407aff7b4",
          "transactionIndex": "0x1",
          "logIndex": "0x0",
          "removed": false
        }
      ],
      "logsBloom": "0x00000000000000000000000000000000000000000000000000000000000000000000000000000000000000000000000000000000000000000000008080000000001000000000000000000008000000000000000000000000000000000000000000000000020000000000000000000800000000000000000000000010000000000000000000000000000000000000000000000000000000000000000000000000000000000100000000000000000000000000000002000000000000000000000000001002000000000000000000000000000000000000000000000000000020000000000000000000000000000000000000000000000000000000000000000000",
      "type": "0x0",
      "transactionHash": "0x95622fd1a6721d6ddebecf482dd343ffe2fb9b50f1fcc0b14f5f4d3407aff7b4",
      "transactionIndex": "0x1",
      "blockHash": "0x9213a0e07876179e19bb78372386115c9de858e00e36920603d76985493667a9",
      "blockNumber": "0x3dea6ce",
      "gasUsed": "0xca93",
      "effectiveGasPrice": "0x5f5e100",
      "from": "0xa2791e44234dc9c96f260ad15fdd09fe9b597fe1",
      "to": "0x1648c0b178eebcb57aa31e3c62ee2b52bfd1a123",
      "contractAddress": null
    },
    {
      "status": "0x1",
      "cumulativeGasUsed": "0x1e72e",
      "logs": [
        {
          "address": "0x1648c0b178eebcb57aa31e3c62ee2b52bfd1a123",
          "topics": [
            "0xddf252ad1be2c89b69c2b068fc378daa952ba7f163c4a11628f55a4df523b3ef",
            "0x0000000000000000000000000000000000000000000000000000000000000000",
            "0x0000000000000000000000007065fc73488a273046103518c49c11438b533de8"
          ],
          "data": "0x0000000000000000000000000000000000000000000000056bc75e2d63100000",
          "blockHash": "0x9213a0e07876179e19bb78372386115c9de858e00e36920603d76985493667a9",
          "blockNumber": "0x3dea6ce",
          "transactionHash": "0xa8ff4bac64a44d2c1b7599f05aaed85fe2d94d77d77935099b804dddedff9a88",
          "transactionIndex": "0x2",
          "logIndex": "0x1",
          "removed": false
        }
      ],
      "logsBloom": "0x00000000000000000000000000000000000000000000000000000000000000000000000000000000000000000000000000000000000000000000008000000000000000000000000000000008000000000000000000000000000000000000000000000000020000000000000000000800000000000000000000000010000000000000000000000000000000000000000000000000000000000000000000000000000000000000000000000000000000000000000002000000040000000000000000001002000000000000000000000000000000002000000000000000000020000000000000000000000000800000000000000000000000000000000000000000",
      "type": "0x0",
      "transactionHash": "0xa8ff4bac64a44d2c1b7599f05aaed85fe2d94d77d77935099b804dddedff9a88",
      "transactionIndex": "0x2",
      "blockHash": "0x9213a0e07876179e19bb78372386115c9de858e00e36920603d76985493667a9",
      "blockNumber": "0x3dea6ce",
      "gasUsed": "0xca93",
      "effectiveGasPrice": "0x5f5e100",
      "from": "0xa2791e44234dc9c96f260ad15fdd09fe9b597fe1",
      "to": "0x1648c0b178eebcb57aa31e3c62ee2b52bfd1a123",
      "contractAddress": null
    },
    {
      "status": "0x1",
      "cumulativeGasUsed": "0x2b1c1",
      "logs": [
        {
          "address": "0x1648c0b178eebcb57aa31e3c62ee2b52bfd1a123",
          "topics": [
            "0xddf252ad1be2c89b69c2b068fc378daa952ba7f163c4a11628f55a4df523b3ef",
            "0x0000000000000000000000000000000000000000000000000000000000000000",
            "0x000000000000000000000000754b633228ce785770670f645c6f427ddc804b99"
          ],
          "data": "0x0000000000000000000000000000000000000000000000056bc75e2d63100000",
          "blockHash": "0x9213a0e07876179e19bb78372386115c9de858e00e36920603d76985493667a9",
          "blockNumber": "0x3dea6ce",
          "transactionHash": "0x107fbca517a993570c263837779a28d25ba8824999e90f4e7b7277e703b2acb3",
          "transactionIndex": "0x3",
          "logIndex": "0x2",
          "removed": false
        }
      ],
      "logsBloom": "0x00000000000000000000000000000000000000000000000000000000000000000000000000000000000000000000000000000000000000000000008000000000000000000000000100000008000000000000000000000000000000000000000000000000020000000000000000000800000000000000000000000010000000000000000000000000000000000000000000000000000000000000000001000000000000000000000000000000000000000000000002000000000000000000000000001002000000000000000000000000000000000000000000000000001020000000000000000000000000000000000000000000000000000000000000000000",
      "type": "0x0",
      "transactionHash": "0x107fbca517a993570c263837779a28d25ba8824999e90f4e7b7277e703b2acb3",
      "transactionIndex": "0x3",
      "blockHash": "0x9213a0e07876179e19bb78372386115c9de858e00e36920603d76985493667a9",
      "blockNumber": "0x3dea6ce",
      "gasUsed": "0xca93",
      "effectiveGasPrice": "0x5f5e100",
      "from": "0xa2791e44234dc9c96f260ad15fdd09fe9b597fe1",
      "to": "0x1648c0b178eebcb57aa31e3c62ee2b52bfd1a123",
      "contractAddress": null
    },
    {
      "status": "0x1",
      "cumulativeGasUsed": "0xca93",
      "logs": [
        {
          "address": "0x1648c0b178eebcb57aa31e3c62ee2b52bfd1a123",
          "topics": [
            "0xddf252ad1be2c89b69c2b068fc378daa952ba7f163c4a11628f55a4df523b3ef",
            "0x0000000000000000000000000000000000000000000000000000000000000000",
            "0x0000000000000000000000009ebafaad6a9d13b2d03dada966b52f4c2a6671dd"
          ],
          "data": "0x0000000000000000000000000000000000000000000000056bc75e2d63100000",
          "blockHash": "0xb26b7436dfe5b7a6922536b8b9d01d5437ca68209fd5f35c6d989864fac68a4e",
          "blockNumber": "0x3dea6cf",
          "transactionHash": "0x4ea59094c997a60eb5279b5888009e570a4fcfe73280bbf231dd1148ae5e55ed",
          "transactionIndex": "0x0",
          "logIndex": "0x0",
          "removed": false
        }
      ],
      "logsBloom": "0x00000000000000000000000000000000000004000000000000000000000000000000000000000000000000000000000000000000000000000000008000000000800000000000000000000008000000000000000000000000000000000000000000000000020000000000000000000800000000000000000000000010000000000000000000000000000000000000000000000000000000000000000000000000000000000000002000000000000000000000000002000000000000000000000000001002000000000000000000000000000000000000000000000000000020000000000000000000000000000000000000000000000000000000000000000000",
      "type": "0x0",
      "transactionHash": "0x4ea59094c997a60eb5279b5888009e570a4fcfe73280bbf231dd1148ae5e55ed",
      "transactionIndex": "0x0",
      "blockHash": "0xb26b7436dfe5b7a6922536b8b9d01d5437ca68209fd5f35c6d989864fac68a4e",
      "blockNumber": "0x3dea6cf",
      "gasUsed": "0xca93",
      "effectiveGasPrice": "0x5f5e100",
      "from": "0xa2791e44234dc9c96f260ad15fdd09fe9b597fe1",
      "to": "0x1648c0b178eebcb57aa31e3c62ee2b52bfd1a123",
      "contractAddress": null
    },
    {
      "status": "0x1",
      "cumulativeGasUsed": "0x19526",
      "logs": [
        {
          "address": "0x1648c0b178eebcb57aa31e3c62ee2b52bfd1a123",
          "topics": [
            "0xddf252ad1be2c89b69c2b068fc378daa952ba7f163c4a11628f55a4df523b3ef",
            "0x0000000000000000000000000000000000000000000000000000000000000000",
            "0x0000000000000000000000006192cacfd2de48da76f479f88183ca51e0ba8e2e"
          ],
          "data": "0x0000000000000000000000000000000000000000000000056bc75e2d63100000",
          "blockHash": "0xb26b7436dfe5b7a6922536b8b9d01d5437ca68209fd5f35c6d989864fac68a4e",
          "blockNumber": "0x3dea6cf",
          "transactionHash": "0x3bf8aee1f547dcbc320e31d9751db92f5aa7f5141576a478dbc3392ebecec995",
          "transactionIndex": "0x1",
          "logIndex": "0x1",
          "removed": false
        }
      ],
      "logsBloom": "0x00000000000000000000000000000000000000000000000000000000020000000000000000000000000000000000000000000000000000000000008000000000000000000000000000000008000000000000000000000000000000000000000000000000020000000000000000000800000000000000000000000010000000000000000000000000000000000000000000000000000000000000000000000000000000000100000000000000000000000000000002000000000000000000000000001002000000000000000000000000000000000000000000000000000020000000000000000000000000000000008000000000000000000000000000000000",
      "type": "0x0",
      "transactionHash": "0x3bf8aee1f547dcbc320e31d9751db92f5aa7f5141576a478dbc3392ebecec995",
      "transactionIndex": "0x1",
      "blockHash": "0xb26b7436dfe5b7a6922536b8b9d01d5437ca68209fd5f35c6d989864fac68a4e",
      "blockNumber": "0x3dea6cf",
      "gasUsed": "0xca93",
      "effectiveGasPrice": "0x5f5e100",
      "from": "0xa2791e44234dc9c96f260ad15fdd09fe9b597fe1",
      "to": "0x1648c0b178eebcb57aa31e3c62ee2b52bfd1a123",
      "contractAddress": null
    },
    {
      "status": "0x1",
      "cumulativeGasUsed": "0x25fb9",
      "logs": [
        {
          "address": "0x1648c0b178eebcb57aa31e3c62ee2b52bfd1a123",
          "topics": [
            "0xddf252ad1be2c89b69c2b068fc378daa952ba7f163c4a11628f55a4df523b3ef",
            "0x0000000000000000000000000000000000000000000000000000000000000000",
            "0x0000000000000000000000006c03724c891dc2aa649def70e780061f2b72ccde"
          ],
          "data": "0x0000000000000000000000000000000000000000000000056bc75e2d63100000",
          "blockHash": "0xb26b7436dfe5b7a6922536b8b9d01d5437ca68209fd5f35c6d989864fac68a4e",
          "blockNumber": "0x3dea6cf",
          "transactionHash": "0xe6b6db9eed10fc37237343bad3e1480f1e971b706475013dd0c98886bf45b3eb",
          "transactionIndex": "0x2",
          "logIndex": "0x2",
          "removed": false
        }
      ],
      "logsBloom": "0x00000000000000000000000000000000000000000000000000000000000000000000000000000000000000000000000000000000000000000000008000000000000000000000000000000008000000000000000000000000000000000000000000000000020000000000000000000800000000000000000000000010000000000000000010000000000000000000000000000000000000000000000000000000000000000000000000000000000000000000000002000000000000000000000000001002000000000000000000000000000000000800000000000000000020000000000000000000000000000000000000000000000000000000000100000000",
      "type": "0x0",
      "transactionHash": "0xe6b6db9eed10fc37237343bad3e1480f1e971b706475013dd0c98886bf45b3eb",
      "transactionIndex": "0x2",
      "blockHash": "0xb26b7436dfe5b7a6922536b8b9d01d5437ca68209fd5f35c6d989864fac68a4e",
      "blockNumber": "0x3dea6cf",
      "gasUsed": "0xca93",
      "effectiveGasPrice": "0x5f5e100",
      "from": "0xa2791e44234dc9c96f260ad15fdd09fe9b597fe1",
      "to": "0x1648c0b178eebcb57aa31e3c62ee2b52bfd1a123",
      "contractAddress": null
    },
    {
      "status": "0x1",
      "cumulativeGasUsed": "0x32a40",
      "logs": [
        {
          "address": "0x1648c0b178eebcb57aa31e3c62ee2b52bfd1a123",
          "topics": [
            "0xddf252ad1be2c89b69c2b068fc378daa952ba7f163c4a11628f55a4df523b3ef",
            "0x0000000000000000000000000000000000000000000000000000000000000000",
            "0x00000000000000000000000048a55480c9c94f9a7fea4174a356ef6df3002c59"
          ],
          "data": "0x0000000000000000000000000000000000000000000000056bc75e2d63100000",
          "blockHash": "0xb26b7436dfe5b7a6922536b8b9d01d5437ca68209fd5f35c6d989864fac68a4e",
          "blockNumber": "0x3dea6cf",
          "transactionHash": "0x3ed5b85162593765e66f7f8217e4bb6e25eb0df0c9c2e89ccf782d9e0f902cad",
          "transactionIndex": "0x3",
          "logIndex": "0x3",
          "removed": false
        }
      ],
      "logsBloom": "0x00000000000000000000000000000000000000000000000000000000000000000000000000000000000000000000000000000000000000000000008000000000000000000000000000000008000000000000000000000000000000000000000000000000020000000000000000000800000000000000000000000010000000000000000000000000000000000000000000000000000000000000000000000000000000000000000000000000000000000000000002000000000000000000000000001002000000000000000000000000000000000000400000000000000020000000000000000000000840000000000000000000000000000000000000000000",
      "type": "0x0",
      "transactionHash": "0x3ed5b85162593765e66f7f8217e4bb6e25eb0df0c9c2e89ccf782d9e0f902cad",
      "transactionIndex": "0x3",
      "blockHash": "0xb26b7436dfe5b7a6922536b8b9d01d5437ca68209fd5f35c6d989864fac68a4e",
      "blockNumber": "0x3dea6cf",
      "gasUsed": "0xca87",
      "effectiveGasPrice": "0x5f5e100",
      "from": "0xa2791e44234dc9c96f260ad15fdd09fe9b597fe1",
      "to": "0x1648c0b178eebcb57aa31e3c62ee2b52bfd1a123",
      "contractAddress": null
    },
    {
      "status": "0x1",
      "cumulativeGasUsed": "0x3f4d3",
      "logs": [
        {
          "address": "0x1648c0b178eebcb57aa31e3c62ee2b52bfd1a123",
          "topics": [
            "0xddf252ad1be2c89b69c2b068fc378daa952ba7f163c4a11628f55a4df523b3ef",
            "0x0000000000000000000000000000000000000000000000000000000000000000",
            "0x000000000000000000000000f9185956b9da818acf151b2f397d45eff317e0d3"
          ],
          "data": "0x0000000000000000000000000000000000000000000000056bc75e2d63100000",
          "blockHash": "0xb26b7436dfe5b7a6922536b8b9d01d5437ca68209fd5f35c6d989864fac68a4e",
          "blockNumber": "0x3dea6cf",
          "transactionHash": "0x54a3963be9b1d3137fd83bb3294d2de2f9ee9ba9324285babdb61b1814d23a42",
          "transactionIndex": "0x4",
          "logIndex": "0x4",
          "removed": false
        }
      ],
      "logsBloom": "0x00000000000000000000000000000000000000000000000000000000000000000000000000000000000000000000000000000000000000000000008000800000000000000000000000000008000000000000000000000000000200000000000000000200020000000000000000000800000000000000000000000010000000000000000000000000000000000000000000000000000000000000000000000000000000000000000000000000000000000000000002000000000000000000000000001002000000000000000000000000000000000000000000000000000020000000000000000000000000000000000000000000000000000000000000000000",
      "type": "0x0",
      "transactionHash": "0x54a3963be9b1d3137fd83bb3294d2de2f9ee9ba9324285babdb61b1814d23a42",
      "transactionIndex": "0x4",
      "blockHash": "0xb26b7436dfe5b7a6922536b8b9d01d5437ca68209fd5f35c6d989864fac68a4e",
      "blockNumber": "0x3dea6cf",
      "gasUsed": "0xca93",
      "effectiveGasPrice": "0x5f5e100",
      "from": "0xa2791e44234dc9c96f260ad15fdd09fe9b597fe1",
      "to": "0x1648c0b178eebcb57aa31e3c62ee2b52bfd1a123",
      "contractAddress": null
    },
    {
      "status": "0x1",
      "cumulativeGasUsed": "0x4bf66",
      "logs": [
        {
          "address": "0x1648c0b178eebcb57aa31e3c62ee2b52bfd1a123",
          "topics": [
            "0xddf252ad1be2c89b69c2b068fc378daa952ba7f163c4a11628f55a4df523b3ef",
            "0x0000000000000000000000000000000000000000000000000000000000000000",
            "0x0000000000000000000000007937af8eea4d307abd880cc71a4390dc51fc6904"
          ],
          "data": "0x0000000000000000000000000000000000000000000000056bc75e2d63100000",
          "blockHash": "0xb26b7436dfe5b7a6922536b8b9d01d5437ca68209fd5f35c6d989864fac68a4e",
          "blockNumber": "0x3dea6cf",
          "transactionHash": "0x79bdec451b430adb86c3a0c5374c8b3867c40a23c5bb7e6adfb507f39a8480ac",
          "transactionIndex": "0x5",
          "logIndex": "0x5",
          "removed": false
        }
      ],
      "logsBloom": "0x00000000000000000000000000000000000000000000000000000000000000000000000000000000000000000000000000000000000000000000008000000000000008000000000000000008000000000000000000000000000000000000000000000000020000000000000000000800000000000000000000000010000000000000000000000000000000000000000000000000000000000400000000000000000000000000000000000000000000000000000002000000000000000000000000001002000000000000000000000000000000000000000000000000000020000000000000000000000000000000000004000000000000000000000000000000",
      "type": "0x0",
      "transactionHash": "0x79bdec451b430adb86c3a0c5374c8b3867c40a23c5bb7e6adfb507f39a8480ac",
      "transactionIndex": "0x5",
      "blockHash": "0xb26b7436dfe5b7a6922536b8b9d01d5437ca68209fd5f35c6d989864fac68a4e",
      "blockNumber": "0x3dea6cf",
      "gasUsed": "0xca93",
      "effectiveGasPrice": "0x5f5e100",
      "from": "0xa2791e44234dc9c96f260ad15fdd09fe9b597fe1",
      "to": "0x1648c0b178eebcb57aa31e3c62ee2b52bfd1a123",
      "contractAddress": null
    },
    {
      "status": "0x1",
      "cumulativeGasUsed": "0xca93",
      "logs": [
        {
          "address": "0x1648c0b178eebcb57aa31e3c62ee2b52bfd1a123",
          "topics": [
            "0xddf252ad1be2c89b69c2b068fc378daa952ba7f163c4a11628f55a4df523b3ef",
            "0x0000000000000000000000000000000000000000000000000000000000000000",
            "0x00000000000000000000000008c388b03c08e373c162b09c0d50457dcca67cfc"
          ],
          "data": "0x0000000000000000000000000000000000000000000000056bc75e2d63100000",
          "blockHash": "0x48df09a29d9a5ac4677f7d0ec123ea42a6fc53175a5ec19ed79b575894903922",
          "blockNumber": "0x3dea6d0",
          "transactionHash": "0x0dcec37d4cc7bfb58e0fbbbae3ed60bb69c622f4a1b3ecbc87c9a320b7b38cc6",
          "transactionIndex": "0x0",
          "logIndex": "0x0",
          "removed": false
        }
      ],
      "logsBloom": "0x00000000000000000000000000000000000000000000000000000000000000000000000000000000000000000000000000000000000000000000008000000000000000000000000002000008000000000000000000000000000000000000000000000000020000000000000000000800000000000000000000000010000000000000000000000000000000000000000000000040000000000000000000000000000000000000000000000000000000000000000002000000000000040000000000001002000000000000000000000000000000000000000000000000000020000000000000000000000000000000000000000000000000000000000000000000",
      "type": "0x0",
      "transactionHash": "0x0dcec37d4cc7bfb58e0fbbbae3ed60bb69c622f4a1b3ecbc87c9a320b7b38cc6",
      "transactionIndex": "0x0",
      "blockHash": "0x48df09a29d9a5ac4677f7d0ec123ea42a6fc53175a5ec19ed79b575894903922",
      "blockNumber": "0x3dea6d0",
      "gasUsed": "0xca93",
      "effectiveGasPrice": "0x5f5e100",
      "from": "0xa2791e44234dc9c96f260ad15fdd09fe9b597fe1",
      "to": "0x1648c0b178eebcb57aa31e3c62ee2b52bfd1a123",
      "contractAddress": null
    },
    {
      "status": "0x1",
      "cumulativeGasUsed": "0x19526",
      "logs": [
        {
          "address": "0x1648c0b178eebcb57aa31e3c62ee2b52bfd1a123",
          "topics": [
            "0xddf252ad1be2c89b69c2b068fc378daa952ba7f163c4a11628f55a4df523b3ef",
            "0x0000000000000000000000000000000000000000000000000000000000000000",
            "0x0000000000000000000000004609284c9ae49f0a9a7efe05aecbdbaee1107b5a"
          ],
          "data": "0x0000000000000000000000000000000000000000000000056bc75e2d63100000",
          "blockHash": "0x48df09a29d9a5ac4677f7d0ec123ea42a6fc53175a5ec19ed79b575894903922",
          "blockNumber": "0x3dea6d0",
          "transactionHash": "0x686902df93cbedce8935829e1341a667e2f7dd819f9d51698a6a170b45125b92",
          "transactionIndex": "0x1",
          "logIndex": "0x1",
          "removed": false
        }
      ],
      "logsBloom": "0x00000000000000000000000000000000000000000000200000000000000000000000000000000000000000000000000000000000000000000000008000000000000000000000000000000008000000000000000000000000000000000000000000000000020000000000000000000800000000000000000000000010000000000000000000000000000000000000000000000000000000000000000000000000000000000000000000000000000000000000000002800000000000000000000000001002000800000000000000000000000000000000000000000000000020000000000000000000000000000000000000000000000000000000000000000000",
      "type": "0x0",
      "transactionHash": "0x686902df93cbedce8935829e1341a667e2f7dd819f9d51698a6a170b45125b92",
      "transactionIndex": "0x1",
      "blockHash": "0x48df09a29d9a5ac4677f7d0ec123ea42a6fc53175a5ec19ed79b575894903922",
      "blockNumber": "0x3dea6d0",
      "gasUsed": "0xca93",
      "effectiveGasPrice": "0x5f5e100",
      "from": "0xa2791e44234dc9c96f260ad15fdd09fe9b597fe1",
      "to": "0x1648c0b178eebcb57aa31e3c62ee2b52bfd1a123",
      "contractAddress": null
    },
    {
      "status": "0x1",
      "cumulativeGasUsed": "0x25fb9",
      "logs": [
        {
          "address": "0x1648c0b178eebcb57aa31e3c62ee2b52bfd1a123",
          "topics": [
            "0xddf252ad1be2c89b69c2b068fc378daa952ba7f163c4a11628f55a4df523b3ef",
            "0x0000000000000000000000000000000000000000000000000000000000000000",
            "0x000000000000000000000000975b079a73a8a80ab79522a8350771b403ff9aa3"
          ],
          "data": "0x0000000000000000000000000000000000000000000000056bc75e2d63100000",
          "blockHash": "0x48df09a29d9a5ac4677f7d0ec123ea42a6fc53175a5ec19ed79b575894903922",
          "blockNumber": "0x3dea6d0",
          "transactionHash": "0xb54833eeadb89be6d048f62382303f7cd202f7f64bb7fbb4a25af890952462d7",
          "transactionIndex": "0x2",
          "logIndex": "0x2",
          "removed": false
        }
      ],
      "logsBloom": "0x00000200000000000000000000000000000000000000000000000000000000000000000000000000000000000000000000000000000000000000008000000000000000000000000000000008000000000000000000000000000000000000000000000000020000000000000000000800000000000000000000000010000000000000000001000000000000000000000000000000000000000000000000000000000000000000000000000000000000000000000002000000000000000000000000001002000000000000000000000000000000000000000000100000000020000000000000000000000000000000000000000000000000000000000000000000",
      "type": "0x0",
      "transactionHash": "0xb54833eeadb89be6d048f62382303f7cd202f7f64bb7fbb4a25af890952462d7",
      "transactionIndex": "0x2",
      "blockHash": "0x48df09a29d9a5ac4677f7d0ec123ea42a6fc53175a5ec19ed79b575894903922",
      "blockNumber": "0x3dea6d0",
      "gasUsed": "0xca93",
      "effectiveGasPrice": "0x5f5e100",
      "from": "0xa2791e44234dc9c96f260ad15fdd09fe9b597fe1",
      "to": "0x1648c0b178eebcb57aa31e3c62ee2b52bfd1a123",
      "contractAddress": null
    },
    {
      "status": "0x1",
      "cumulativeGasUsed": "0x32a4c",
      "logs": [
        {
          "address": "0x1648c0b178eebcb57aa31e3c62ee2b52bfd1a123",
          "topics": [
            "0xddf252ad1be2c89b69c2b068fc378daa952ba7f163c4a11628f55a4df523b3ef",
            "0x0000000000000000000000000000000000000000000000000000000000000000",
            "0x000000000000000000000000b7ce47e6049ab78fc7b51a6e8d2b0a10ab1ee109"
          ],
          "data": "0x0000000000000000000000000000000000000000000000056bc75e2d63100000",
          "blockHash": "0x48df09a29d9a5ac4677f7d0ec123ea42a6fc53175a5ec19ed79b575894903922",
          "blockNumber": "0x3dea6d0",
          "transactionHash": "0x088e994e7efd14036f1485e38d363d3fd9e0d1c71718e6e3dd150e6af0c6b04c",
          "transactionIndex": "0x3",
          "logIndex": "0x3",
          "removed": false
        }
      ],
      "logsBloom": "0x00000000000000000000000000000000000000000000000000000000000000000000000000000000000000000000000000000000000000000000008000000000000000000000000000000008000000000000000000000000000000000000000000000000020000000000000000000800000000000000000000000010000040000000000000000000000000000000000000000000000000000000000000000000000000000000000000000000000000000000000002000000000000000000000000001002000000000000000000000000000000000000000000000000000020100000000000000000000000000000000040000000000000000000000000000000",
      "type": "0x0",
      "transactionHash": "0x088e994e7efd14036f1485e38d363d3fd9e0d1c71718e6e3dd150e6af0c6b04c",
      "transactionIndex": "0x3",
      "blockHash": "0x48df09a29d9a5ac4677f7d0ec123ea42a6fc53175a5ec19ed79b575894903922",
      "blockNumber": "0x3dea6d0",
      "gasUsed": "0xca93",
      "effectiveGasPrice": "0x5f5e100",
      "from": "0xa2791e44234dc9c96f260ad15fdd09fe9b597fe1",
      "to": "0x1648c0b178eebcb57aa31e3c62ee2b52bfd1a123",
      "contractAddress": null
    },
    {
      "status": "0x1",
      "cumulativeGasUsed": "0x460f2",
      "logs": [
        {
          "address": "0x1648c0b178eebcb57aa31e3c62ee2b52bfd1a123",
          "topics": [
            "0xddf252ad1be2c89b69c2b068fc378daa952ba7f163c4a11628f55a4df523b3ef",
            "0x0000000000000000000000000000000000000000000000000000000000000000",
            "0x0000000000000000000000002e647e04387cb6d318581500a13f8e88e5222112"
          ],
          "data": "0x0000000000000000000000000000000000000000000000056bc75e2d63100000",
          "blockHash": "0x48df09a29d9a5ac4677f7d0ec123ea42a6fc53175a5ec19ed79b575894903922",
          "blockNumber": "0x3dea6d0",
          "transactionHash": "0x602798a3f9ad4c60945117feac91212a65f2a08d06ec5c202cd834d6580ca2ee",
          "transactionIndex": "0x5",
          "logIndex": "0x5",
          "removed": false
        }
      ],
      "logsBloom": "0x00000000000000000000000000000000000000000000000000000000000000000000000000000000000000000000000000000000000000000000008000000000000000000000001000000008000000000000000000000000000001000000000000000000020000000000000000000800000000000000000000000010000000000000000000000000000000000000008000000000000000000000000000000000000000000000000000000000000000000000000002000000000000000000000000001002000000000000000000000000000000000000000000000000000020000000000000000000000000000000000000000000000000000000000000000000",
      "type": "0x0",
      "transactionHash": "0x602798a3f9ad4c60945117feac91212a65f2a08d06ec5c202cd834d6580ca2ee",
      "transactionIndex": "0x5",
      "blockHash": "0x48df09a29d9a5ac4677f7d0ec123ea42a6fc53175a5ec19ed79b575894903922",
      "blockNumber": "0x3dea6d0",
      "gasUsed": "0xca87",
      "effectiveGasPrice": "0x5f5e100",
      "from": "0xa2791e44234dc9c96f260ad15fdd09fe9b597fe1",
      "to": "0x1648c0b178eebcb57aa31e3c62ee2b52bfd1a123",
      "contractAddress": null
    },
    {
      "status": "0x1",
      "cumulativeGasUsed": "0x52b85",
      "logs": [
        {
          "address": "0x1648c0b178eebcb57aa31e3c62ee2b52bfd1a123",
          "topics": [
            "0xddf252ad1be2c89b69c2b068fc378daa952ba7f163c4a11628f55a4df523b3ef",
            "0x0000000000000000000000000000000000000000000000000000000000000000",
            "0x0000000000000000000000000db3170b07a89ab6a11f5d7d32cee8bf2f30844c"
          ],
          "data": "0x0000000000000000000000000000000000000000000000056bc75e2d63100000",
          "blockHash": "0x48df09a29d9a5ac4677f7d0ec123ea42a6fc53175a5ec19ed79b575894903922",
          "blockNumber": "0x3dea6d0",
          "transactionHash": "0x5e4d657d84ec596132eb88c0193060af366f266d6aae94e9f76c5327a35474cf",
          "transactionIndex": "0x6",
          "logIndex": "0x6",
          "removed": false
        }
      ],
      "logsBloom": "0x00000000000000000000000000000000000000000000000000000000000000000000000000000000000000000000000000000000000000000000008000000000000000000000020000000008000000000000000000000000000000000000000000000000020000000000000000000800000000000000000000000010000000000000000000000000000000000000000000000000000000000000000040000000000000000000000000000000000000000000000002000000000000000000400000001002000000000000000000000000000000000000000000000000000020000000000000000000000000000000000000000000000000000000000000000000",
      "type": "0x0",
      "transactionHash": "0x5e4d657d84ec596132eb88c0193060af366f266d6aae94e9f76c5327a35474cf",
      "transactionIndex": "0x6",
      "blockHash": "0x48df09a29d9a5ac4677f7d0ec123ea42a6fc53175a5ec19ed79b575894903922",
      "blockNumber": "0x3dea6d0",
      "gasUsed": "0xca93",
      "effectiveGasPrice": "0x5f5e100",
      "from": "0xa2791e44234dc9c96f260ad15fdd09fe9b597fe1",
      "to": "0x1648c0b178eebcb57aa31e3c62ee2b52bfd1a123",
      "contractAddress": null
    },
    {
      "status": "0x1",
      "cumulativeGasUsed": "0x5f618",
      "logs": [
        {
          "address": "0x1648c0b178eebcb57aa31e3c62ee2b52bfd1a123",
          "topics": [
            "0xddf252ad1be2c89b69c2b068fc378daa952ba7f163c4a11628f55a4df523b3ef",
            "0x0000000000000000000000000000000000000000000000000000000000000000",
            "0x0000000000000000000000005c10ab8d08b7f640ba703e6b1c850324bcf22330"
          ],
          "data": "0x0000000000000000000000000000000000000000000000056bc75e2d63100000",
          "blockHash": "0x48df09a29d9a5ac4677f7d0ec123ea42a6fc53175a5ec19ed79b575894903922",
          "blockNumber": "0x3dea6d0",
          "transactionHash": "0x7f21ac301de315a1e1b11919e87e439a1529764cedd61eca4daba7e87bcc3647",
          "transactionIndex": "0x7",
          "logIndex": "0x7",
          "removed": false
        }
      ],
      "logsBloom": "0x00000000000000000000000000000000000000000020000000000000000200000000000000000000000000000000000000000000000000000000008000000000000000000000000000000008000000000000000000000000000000000000000000000000020000000000000000000800000000000000000000000010000000000000000000000000000000000000000000000000000000000000000000000000000000000000000000000000000000000000000002000000000000000000000000003002000000000000000000000000000000000000000000000000000020000000000000000000000000000000000000000000000000000000000000000000",
      "type": "0x0",
      "transactionHash": "0x7f21ac301de315a1e1b11919e87e439a1529764cedd61eca4daba7e87bcc3647",
      "transactionIndex": "0x7",
      "blockHash": "0x48df09a29d9a5ac4677f7d0ec123ea42a6fc53175a5ec19ed79b575894903922",
      "blockNumber": "0x3dea6d0",
      "gasUsed": "0xca93",
      "effectiveGasPrice": "0x5f5e100",
      "from": "0xa2791e44234dc9c96f260ad15fdd09fe9b597fe1",
      "to": "0x1648c0b178eebcb57aa31e3c62ee2b52bfd1a123",
      "contractAddress": null
    },
    {
      "status": "0x1",
      "cumulativeGasUsed": "0x6c0ab",
      "logs": [
        {
          "address": "0x1648c0b178eebcb57aa31e3c62ee2b52bfd1a123",
          "topics": [
            "0xddf252ad1be2c89b69c2b068fc378daa952ba7f163c4a11628f55a4df523b3ef",
            "0x0000000000000000000000000000000000000000000000000000000000000000",
            "0x0000000000000000000000004753b4a035220a8e33bf879fa4cac7fbd32511b2"
          ],
          "data": "0x0000000000000000000000000000000000000000000000056bc75e2d63100000",
          "blockHash": "0x48df09a29d9a5ac4677f7d0ec123ea42a6fc53175a5ec19ed79b575894903922",
          "blockNumber": "0x3dea6d0",
          "transactionHash": "0xa19ee3fc36d3c3d69e683fba9ae4e8a15cfdb489718b498fb2923ddb1fa272f6",
          "transactionIndex": "0x8",
          "logIndex": "0x8",
          "removed": false
        }
      ],
      "logsBloom": "0x00000000000000000000000000000000000000000000000000000000000000000000000000000000000000000000000000000000000000000000008000000000000000000000000000000008000000000000000000000000000000000000000000000000020000000000000000000800000000000000000000000010000000000000000000000000000000000200000000000000000000000000000000000000000000000000000000000000000000000000000002000000000000000000000000001002000080000000000000000000000000000000000000000000000020000001000000000000000000000000000000000000000000000000000000000000",
      "type": "0x0",
      "transactionHash": "0xa19ee3fc36d3c3d69e683fba9ae4e8a15cfdb489718b498fb2923ddb1fa272f6",
      "transactionIndex": "0x8",
      "blockHash": "0x48df09a29d9a5ac4677f7d0ec123ea42a6fc53175a5ec19ed79b575894903922",
      "blockNumber": "0x3dea6d0",
      "gasUsed": "0xca93",
      "effectiveGasPrice": "0x5f5e100",
      "from": "0xa2791e44234dc9c96f260ad15fdd09fe9b597fe1",
      "to": "0x1648c0b178eebcb57aa31e3c62ee2b52bfd1a123",
      "contractAddress": null
    },
    {
      "status": "0x1",
      "cumulativeGasUsed": "0x78b3e",
      "logs": [
        {
          "address": "0x1648c0b178eebcb57aa31e3c62ee2b52bfd1a123",
          "topics": [
            "0xddf252ad1be2c89b69c2b068fc378daa952ba7f163c4a11628f55a4df523b3ef",
            "0x0000000000000000000000000000000000000000000000000000000000000000",
            "0x000000000000000000000000bd630c32c65fd62377b06c1d521ca0327e41e98e"
          ],
          "data": "0x0000000000000000000000000000000000000000000000056bc75e2d63100000",
          "blockHash": "0x48df09a29d9a5ac4677f7d0ec123ea42a6fc53175a5ec19ed79b575894903922",
          "blockNumber": "0x3dea6d0",
          "transactionHash": "0x01697e1bb1d6c715665db63cbbf5cc8317cbb28886d2d76d10687f73e7e9295e",
          "transactionIndex": "0x9",
          "logIndex": "0x9",
          "removed": false
        }
      ],
      "logsBloom": "0x00000000000000000000000000000000000000000000000000000000000000000000000000000000000001000000000000000000000000000000008001000000000000000000000000000008000000000000000000000000000000000000000000000000020000000000000000000800000000000000000000000010000000000000000000000000000000000000000000000000000000000000000000000000000000000000000000000000000000000000000002000000000000000000000000001002000000000000000000000000000000020000000000000000000020000000000000000000000000000000000000000000000000000000000000000000",
      "type": "0x0",
      "transactionHash": "0x01697e1bb1d6c715665db63cbbf5cc8317cbb28886d2d76d10687f73e7e9295e",
      "transactionIndex": "0x9",
      "blockHash": "0x48df09a29d9a5ac4677f7d0ec123ea42a6fc53175a5ec19ed79b575894903922",
      "blockNumber": "0x3dea6d0",
      "gasUsed": "0xca93",
      "effectiveGasPrice": "0x5f5e100",
      "from": "0xa2791e44234dc9c96f260ad15fdd09fe9b597fe1",
      "to": "0x1648c0b178eebcb57aa31e3c62ee2b52bfd1a123",
      "contractAddress": null
    },
    {
      "status": "0x1",
      "cumulativeGasUsed": "0xca93",
      "logs": [
        {
          "address": "0x1648c0b178eebcb57aa31e3c62ee2b52bfd1a123",
          "topics": [
            "0xddf252ad1be2c89b69c2b068fc378daa952ba7f163c4a11628f55a4df523b3ef",
            "0x0000000000000000000000000000000000000000000000000000000000000000",
            "0x0000000000000000000000008f644929da93294b8cbf77dcedfae030a54d4d96"
          ],
          "data": "0x0000000000000000000000000000000000000000000000056bc75e2d63100000",
          "blockHash": "0x42fe6556ca19c7d0ea0dcaedb66c4e5ccd5784436f95533fb838ddcc185827db",
          "blockNumber": "0x3dea6d1",
          "transactionHash": "0x699642cd1b6ba6a4aab824009b7d3340a943a71753df6bad52cab2ae887e4fc9",
          "transactionIndex": "0x0",
          "logIndex": "0x0",
          "removed": false
        }
      ],
      "logsBloom": "0x00000000000000000000000000000000000000000000000000000000000000000000000000000000000000000000000000000000000000000000008000000000000000000000000000000008000000000000000000000000000000000000000000000000020000000000000000000800000000000000000000000010000000000000000000000000000000000000000000000000000000000000000000000000000000000000000000000000000240000000000002000000000000000000000000001002000000000000000000000000100000000000000000000000000020000000000000000000000000000000000000000000000000000000000000000000",
      "type": "0x0",
      "transactionHash": "0x699642cd1b6ba6a4aab824009b7d3340a943a71753df6bad52cab2ae887e4fc9",
      "transactionIndex": "0x0",
      "blockHash": "0x42fe6556ca19c7d0ea0dcaedb66c4e5ccd5784436f95533fb838ddcc185827db",
      "blockNumber": "0x3dea6d1",
      "gasUsed": "0xca93",
      "effectiveGasPrice": "0x5f5e100",
      "from": "0xa2791e44234dc9c96f260ad15fdd09fe9b597fe1",
      "to": "0x1648c0b178eebcb57aa31e3c62ee2b52bfd1a123",
      "contractAddress": null
    },
    {
      "status": "0x1",
      "cumulativeGasUsed": "0x19526",
      "logs": [
        {
          "address": "0x1648c0b178eebcb57aa31e3c62ee2b52bfd1a123",
          "topics": [
            "0xddf252ad1be2c89b69c2b068fc378daa952ba7f163c4a11628f55a4df523b3ef",
            "0x0000000000000000000000000000000000000000000000000000000000000000",
            "0x000000000000000000000000218922b1569f2945ba5a0f3ef78f1e852219dbc2"
          ],
          "data": "0x0000000000000000000000000000000000000000000000056bc75e2d63100000",
          "blockHash": "0x42fe6556ca19c7d0ea0dcaedb66c4e5ccd5784436f95533fb838ddcc185827db",
          "blockNumber": "0x3dea6d1",
          "transactionHash": "0xef4aced931727dd5d2cbdcf62d3c179108ab237a278ea0f5c17f4668a3e25fc6",
          "transactionIndex": "0x1",
          "logIndex": "0x1",
          "removed": false
        }
      ],
      "logsBloom": "0x00000000000000000000200000000000000000000000000000000000000000000000000000000000000000000000000000000000000000000000008000000000000000000000000000000008000000000000000000000000000000000000000000000000020000400000000000000800000000000000000000000010000000000000000000000000000000000000000000000000000000000000000000000000000000000000000000000000000000000000000002000000000000000000000080001002000000000000000000000000000000000000000000000000000020000000000000000000000000000000000000000000000000000000000000000000",
      "type": "0x0",
      "transactionHash": "0xef4aced931727dd5d2cbdcf62d3c179108ab237a278ea0f5c17f4668a3e25fc6",
      "transactionIndex": "0x1",
      "blockHash": "0x42fe6556ca19c7d0ea0dcaedb66c4e5ccd5784436f95533fb838ddcc185827db",
      "blockNumber": "0x3dea6d1",
      "gasUsed": "0xca93",
      "effectiveGasPrice": "0x5f5e100",
      "from": "0xa2791e44234dc9c96f260ad15fdd09fe9b597fe1",
      "to": "0x1648c0b178eebcb57aa31e3c62ee2b52bfd1a123",
      "contractAddress": null
    },
    {
      "status": "0x1",
      "cumulativeGasUsed": "0x25fb9",
      "logs": [
        {
          "address": "0x1648c0b178eebcb57aa31e3c62ee2b52bfd1a123",
          "topics": [
            "0xddf252ad1be2c89b69c2b068fc378daa952ba7f163c4a11628f55a4df523b3ef",
            "0x0000000000000000000000000000000000000000000000000000000000000000",
            "0x000000000000000000000000f081efbd6b6bf95298ea2173ce8282e53f2d61fd"
          ],
          "data": "0x0000000000000000000000000000000000000000000000056bc75e2d63100000",
          "blockHash": "0x42fe6556ca19c7d0ea0dcaedb66c4e5ccd5784436f95533fb838ddcc185827db",
          "blockNumber": "0x3dea6d1",
          "transactionHash": "0x31849173e73871cc1d6a798ff2824c5cf41815294eae55987eeb7a48ec046b54",
          "transactionIndex": "0x2",
          "logIndex": "0x2",
          "removed": false
        }
      ],
      "logsBloom": "0x00000000000000000000000000000000000000000000000000000000000000000000000000000000000000000000000000000000000000000000008000000000000000000000000000000008000000000000000000000000000000000000000000000000020000000000000000000800000000000000000240000010000000000000000000000000000400000000000000000000000000000000000000000000000000000000000000000000000000000000000002000000000000000000000000001002000000000000000000000000000000000000000000000000000020000000000000000000000000000000000000000000000000000000000000000000",
      "type": "0x0",
      "transactionHash": "0x31849173e73871cc1d6a798ff2824c5cf41815294eae55987eeb7a48ec046b54",
      "transactionIndex": "0x2",
      "blockHash": "0x42fe6556ca19c7d0ea0dcaedb66c4e5ccd5784436f95533fb838ddcc185827db",
      "blockNumber": "0x3dea6d1",
      "gasUsed": "0xca93",
      "effectiveGasPrice": "0x5f5e100",
      "from": "0xa2791e44234dc9c96f260ad15fdd09fe9b597fe1",
      "to": "0x1648c0b178eebcb57aa31e3c62ee2b52bfd1a123",
      "contractAddress": null
    },
    {
      "status": "0x1",
      "cumulativeGasUsed": "0x32a4c",
      "logs": [
        {
          "address": "0x1648c0b178eebcb57aa31e3c62ee2b52bfd1a123",
          "topics": [
            "0xddf252ad1be2c89b69c2b068fc378daa952ba7f163c4a11628f55a4df523b3ef",
            "0x0000000000000000000000000000000000000000000000000000000000000000",
            "0x00000000000000000000000028f90db307f1c11855a940dd40e254055a9df0c3"
          ],
          "data": "0x0000000000000000000000000000000000000000000000056bc75e2d63100000",
          "blockHash": "0x42fe6556ca19c7d0ea0dcaedb66c4e5ccd5784436f95533fb838ddcc185827db",
          "blockNumber": "0x3dea6d1",
          "transactionHash": "0xae00c22c2cd20f8a0f545b8605a05425f700ba0deb30e833202f6be5b8db863d",
          "transactionIndex": "0x3",
          "logIndex": "0x3",
          "removed": false
        }
      ],
      "logsBloom": "0x00000000000000000000000000000000000000000000000000000000000000000000000000000000000000000000000000000000000000000000008000000000000000000000000400000008000000000000000000000000000000000000000000000000020000000000000000000800000000000000000000000010020000000000000000000000000000000000000000000000000000000000000000000000000000000000000000000000000080000000000002000000000000000000000000001002000000000000000000000000000000000000000000000000000020000000000000000000000000000000000000000000000000000000000000000000",
      "type": "0x0",
      "transactionHash": "0xae00c22c2cd20f8a0f545b8605a05425f700ba0deb30e833202f6be5b8db863d",
      "transactionIndex": "0x3",
      "blockHash": "0x42fe6556ca19c7d0ea0dcaedb66c4e5ccd5784436f95533fb838ddcc185827db",
      "blockNumber": "0x3dea6d1",
      "gasUsed": "0xca93",
      "effectiveGasPrice": "0x5f5e100",
      "from": "0xa2791e44234dc9c96f260ad15fdd09fe9b597fe1",
      "to": "0x1648c0b178eebcb57aa31e3c62ee2b52bfd1a123",
      "contractAddress": null
    },
    {
      "status": "0x1",
      "cumulativeGasUsed": "0x376398",
      "logs": [
        {
          "address": "0xbbc0105c05f828d715aa5a8b8aa438631ea1077a",
          "topics": [
            "0x8be0079c531659141344cd1fd0a4f28419497f9722a3daafe3b4186f6b6457e0",
            "0x0000000000000000000000000000000000000000000000000000000000000000",
            "0x000000000000000000000000a2791e44234dc9c96f260ad15fdd09fe9b597fe1"
          ],
          "data": "0x",
          "blockHash": "0xfb9f7fd9d90b767797ecae1de1171cd311a27fbe004bfc673876a0c18b858ae3",
          "blockNumber": "0x3dea6d3",
          "transactionHash": "0xa3427641f682469ce54f7ba278d9a05cdc6c7f2dd59f14bbbb2e52b5b78bbb94",
          "transactionIndex": "0x0",
          "logIndex": "0x0",
          "removed": false
        },
        {
          "address": "0xbbc0105c05f828d715aa5a8b8aa438631ea1077a",
          "topics": [
            "0x2138b9314634f9fdd5e49bee3eaf17ca557b6637524d0db759711c3bfcd3d850",
            "0x000000000000000000000000a2791e44234dc9c96f260ad15fdd09fe9b597fe1",
            "0x00000000000000000000000028f90db307f1c11855a940dd40e254055a9df0c3"
          ],
          "data": "0x",
          "blockHash": "0xfb9f7fd9d90b767797ecae1de1171cd311a27fbe004bfc673876a0c18b858ae3",
          "blockNumber": "0x3dea6d3",
          "transactionHash": "0xa3427641f682469ce54f7ba278d9a05cdc6c7f2dd59f14bbbb2e52b5b78bbb94",
          "transactionIndex": "0x0",
          "logIndex": "0x1",
          "removed": false
        }
      ],
      "logsBloom": "0x00000000000000000000000000000000000000000000000000800000000000000000002000000000000000000000000000000000000000000000000000000000000000000000000400000000000000000001000000000000000000000000000000000000020000000000000000000800000000000000000000010000020000400000004000080000000000000200000000000000000000000000000000000000000000000000000000000000000080000000000000000000000000000000000000000000000000000000000000000000000000000000000000000000000028000000000000100000000000000000000000000000000000008000040000000000",
      "type": "0x0",
      "transactionHash": "0xa3427641f682469ce54f7ba278d9a05cdc6c7f2dd59f14bbbb2e52b5b78bbb94",
      "transactionIndex": "0x0",
      "blockHash": "0xfb9f7fd9d90b767797ecae1de1171cd311a27fbe004bfc673876a0c18b858ae3",
      "blockNumber": "0x3dea6d3",
      "gasUsed": "0x376398",
      "effectiveGasPrice": "0x5f5e100",
      "from": "0xa2791e44234dc9c96f260ad15fdd09fe9b597fe1",
      "to": null,
      "contractAddress": "0xbbc0105c05f828d715aa5a8b8aa438631ea1077a"
    },
    {
      "status": "0x1",
      "cumulativeGasUsed": "0x382e2b",
      "logs": [
        {
          "address": "0x1648c0b178eebcb57aa31e3c62ee2b52bfd1a123",
          "topics": [
            "0xddf252ad1be2c89b69c2b068fc378daa952ba7f163c4a11628f55a4df523b3ef",
            "0x0000000000000000000000000000000000000000000000000000000000000000",
            "0x000000000000000000000000bbc0105c05f828d715aa5a8b8aa438631ea1077a"
          ],
          "data": "0x0000000000000000000000000000000000000000000000056bc75e2d63100000",
          "blockHash": "0xfb9f7fd9d90b767797ecae1de1171cd311a27fbe004bfc673876a0c18b858ae3",
          "blockNumber": "0x3dea6d3",
          "transactionHash": "0x2a9cf6b5d3a53cbae6421cbd63e2283452fda7cc6be3952f5261122f1c4f6bed",
          "transactionIndex": "0x1",
          "logIndex": "0x2",
          "removed": false
        }
      ],
      "logsBloom": "0x00000000000000000000000000000000000000000000000000000000000000000000000000000000000000000000000000000000000000000000008000000000000000000000000000002008000000000000000000000000000000000000000000000000020000000000000000000800000000000000000000000010000000000000000000000000000000000000000000000000000000000000000000000000000000000000000000000000000000000000000002000000000020000200000000001002000000000000000000000000000000000000000000000000000020000000000000000000000000000000000000000000000000000000000000000000",
      "type": "0x0",
      "transactionHash": "0x2a9cf6b5d3a53cbae6421cbd63e2283452fda7cc6be3952f5261122f1c4f6bed",
      "transactionIndex": "0x1",
      "blockHash": "0xfb9f7fd9d90b767797ecae1de1171cd311a27fbe004bfc673876a0c18b858ae3",
      "blockNumber": "0x3dea6d3",
      "gasUsed": "0xca93",
      "effectiveGasPrice": "0x5f5e100",
      "from": "0xa2791e44234dc9c96f260ad15fdd09fe9b597fe1",
      "to": "0x1648c0b178eebcb57aa31e3c62ee2b52bfd1a123",
      "contractAddress": null
    }
  ],
  "libraries": [],
  "pending": [],
  "returns": {
    "0": {
      "internal_type": "contract KhoopDefi",
      "value": "0xbbC0105c05F828d715AA5a8b8AA438631ea1077A"
    }
  },
  "timestamp": 1757536217018,
  "chain": 97,
  "commit": "69ba618"
}